:100000000C94F7010C943E020C943E020C943E02B8
:100010000C943E020C943E020C943E020C943E0260
:100020000C943E020C943E020C94B01F0C9484205D
:100030000C94271B0C943E020C943E020C943E023E
:100040000C943E020C943E020C943E020C943E0230
:100050000C943E020C94721B0C943E020C943E02D3
:100060000C943E020C943E020C943E020C943E0210
:100070000C943E020C943E020C943E020C943E0200
:100080000C943E020C943E020C943E020C943E02F0
:100090000C943E020C943E020C943E020C943E02E0
:1000A0000C943E020C943E020C943E021A00160080
:1000B000040007001E001F00200021002200230072
:1000C00024002500260004000500060000047F3FF0
:1000D0001F643214643214783C1E1E140A05222355
:1000E000252628292A2C2D2F3032333536383A3B15
:1000F0003D3E4042434547494A4C4E505153555767
:10010000595A5C5E6062646668696B6D6F71737585
:1001100077797B7D7F81838587898A8C8E90929485
:1001200096989A9C9E9FA1A3A5A7A8AAACAEAFB192
:10013000B3B4B6B8B9BBBCBEBFC1C2C3C5C6C7C9DC
:10014000CACBCCCDCED0D1D2D2D3D4D5D6D7D7D896
:10015000D9D9DADADBDBDBDCDCDCDCDCDDDDDDDDE8
:10016000DCDCDCDCDCDBDBDBDADAD9D9D8D7D7D6F0
:10017000D5D4D3D2D2D1D0CECDCCCBCAC9C7C6C5A7
:10018000C3C2C1BFBEBCBBB9B8B6B4B3B1AFAEACED
:10019000AAA8A7A5A3A19F9E9C9A98969492908E98
:1001A0008C8A89878583817F7D7B79777573716F71
:1001B0006D6B6968666462605E5C5A59575553514D
:1001C000504E4C4A4947454342403E3D3B3A383603
:1001D000353332302F2D2C2A292826252322FFAA19
:1001E0007F554000010101010101010101020202EC
:1001F00002020202020203030303030303030404D3
:10020000040404040405050505050606060606079C
:100210000707070708080808090909090A0A0A0B55
:100220000B0B0C0C0C0D0D0D0E0E0E0F0F0F1010F6
:10023000111111121213131414151516161717187D
:100240001819191A1A1B1B1C1D1D1E1E1F202021E8
:100250002222232424252626272829292A2B2C2D2F
:100260002D2E2F30313232333435363738393A3B50
:100270003C3D3E3F404142434445464748494A4C45
:100280004D4E4F50515354555658595A5B5D5E5F11
:10029000616264656668696B6C6D6F7072737577A7
:1002A000787A7B7D7E8082838587888A8C8E8F9109
:1002B000939596989A9C9EA0A2A3A5A7A9ABADAF33
:1002C000B1B3B5B7BABCBEC0C2C4C6C9CBCDCFD11D
:1002D000D4D6D8DBDDDFE2E4E7E9EBEEF0F3F5F8C6
:1002E000FAFDFF0403300000001603760073006679
:1002F0000069006700680074006500720032000049
:10030000001E036C006500610066006300750074E8
:10031000007400650072006C0061006200730000F0
:10032000000403090409023B00020100A0FA0904C9
:100330000000010301010009211101000122400018
:100340000705810308000A090401000103000000F9
:10035000092111010001223B000705820320000A48
:100360001201100100000008EBCE0700010001029D
:10037000030105010906A1018505050719E029E723
:10038000150025019508750181020507190029EF5F
:100390001500250195F0750181020508190129054F
:1003A000950575019102950175039101C00501093B
:1003B00006A101050719E029E71500250195087533
:1003C0000181029501750881010507190029FF15B2
:1003D0000026FF009506750881000508190129050A
:1003E000950575019102950175039101C0001124D5
:1003F0001FBECFEFDAE0DEBFCDBF04B603FE27C0DD
:100400008091350290913602A0913702B091380266
:100410008730904BA740B04BD1F410923502109228
:100420003602109237021092380214BE84B7877FCA
:1004300084BF0FB6F894A89580916000886180937E
:100440006000109260000FBEE0E0F8E3099511E053
:10045000A0E0B1E0E2E2F6E402C005900D92A23520
:10046000B107D9F722E0A2E5B1E001C01D92A533A2
:10047000B207E1F70E94E11C0C94D3220C94000017
:100480000C946A05CF93DF939C013A9521153F4167
:1004900068F5EC01CC27D170DC01AA27B270AC0161
:1004A000442754709C012227387094FF11C080E1CA
:1004B000CD2B09F480E0AB2B09F08062452B09F0CD
:1004C0008064232B09F08068FB01DF91CF910994B0
:1004D00081E0CD2B09F480E0AB2B09F08260452B45
:1004E00009F08460232B81F38860EECFDF91CF91F8
:1004F0000895CF93DF93EC01805E9109089720F077
:100500006FE273E1209711F460E071E1CE010E9487
:1005100042028C2FDF91CF910C949A10CF93DF93EE
:10052000EC010E94C510CE01805E9109089720F071
:1005300066E373E1209711F467E071E1CE01DF918A
:10054000CF910C944202CF93DF93EC010E94790289
:10055000CE01DF91CF910C948E0281E0089581E06D
:1005600008950C94AF0208950C94B3021F93CF9397
:10057000DF9300D000D00F92CDB7DEB749835A8306
:100580006B833091700189819A8131111DC066237E
:10059000B9F02223A9F00E943118182F682F898101
:1005A0009A810E94DE1769817A81812F0F900F90C6
:1005B0000F900F900F90DF91CF911F910C948203B9
:1005C0000E940A18182FEFCF0E94311869817A8192
:1005D000EDCFFC01262F408151816281738184819E
:1005E0000C94B602CF93DF93EC0160E00E94E90225
:1005F000BE01DF91CF910C94B4020E947819811151
:1006000002C00E94151A0E94BA0C0C9440020C946D
:100610006C05282F2F7041F0822F90E02A3010F4C3
:100620004D9608950697089587E290E008950895FD
:100630000C94170381E008950C941A03CF93C82FEC
:100640000E9418038C2FCF910C941C0308950E94D4
:1006500047130E9426032FEF84E39CE02150804043
:100660009040E1F700C000000C94961B0F931F937D
:10067000CF93DF93EC0161E00E94E9028C01BE019F
:100680000E94B102882389F1BE01C8010E94310D88
:10069000882359F1BE01C8010E94D30D882329F196
:1006A000BE01C8010E94140E8823F9F0BE01C801E2
:1006B0000E94370F8823C9F0BE01C8010E94F60BC3
:1006C000882399F08A81882339F001158CE5180771
:1006D00051F00E3D1C4579F0CE01DF91CF911F9175
:1006E0000F910C94AD020E94270380E0DF91CF911F
:1006F0001F910F9108950E94151AF7CF90E080E0A6
:1007000008950895272F280F3327331FF90184E018
:10071000EE0FFF1F8A95E1F7E60FF11DEE0FFF1FA9
:10072000E455FF4F859194910895FC01EE0FFF1F52
:10073000E453FF4F859194910895CF93DF930E94E6
:1007400082030E949004EC01811521E59207D0F507
:10075000811530E5930708F096C081159042F8F4B2
:10076000C11581E0D807B8F4C03ED10588F4C03C7B
:10077000D10508F07BC0C130D10569F0209759F050
:10078000CE010497813A910530F0D0E0C0E003C07B
:10079000C83ED105D0F7CE01DF91CF910895C115A4
:1007A00090E4D90708F06CC0CE019F70C11520E31A
:1007B000D20708F45EC0CE019927D3FF5EC0EC01DA
:1007C000D86CE9CF811535E5930700F5811544E52F
:1007D000940708F08DC0C11583E5D80708F074C0F0
:1007E000C11592E5D90708F46AC0CE018370992734
:1007F00021E030E002C0220F331F8A95E2F7C69550
:10080000C69580E2C89FE001112455C0811529E5F5
:100810009207A0F4811538E5930708F06EC08115A2
:1008200046E5940708F0B1CF0E942705C82FD0E015
:10083000DC2FCC27CC27DF71D062ADCFC1158AE584
:10084000D80708F45FC0CE0190568115904208F099
:100850009CCF8D2F8F710E94270590E0982F8827BD
:1008600088279F719C012C2BE901E6CFCE01805C8B
:1008700091090E949503EC018ECFEC01D06C8BCFD7
:10088000DF70D06A88CFE4E096958795EA95E1F726
:1008900083702C2F26952695237040E2249F90018B
:1008A0001124382B8C2F8370C1E0D0E002C0CC0F14
:1008B000DD1F8A95E2F7C22BD32BDC686CCFDC2FCF
:1008C000CC27C16FD06A67CFCE018370992721E012
:1008D00030E002C0220F331F8A95E2F7C695C69515
:1008E00090E2C99FE0011124C22BD32BDA6853CFC9
:1008F000D82FCC27C46FD06A4ECFD82FCC27C06F4B
:10090000D06A49CF8C2F8F700E94270534E0D6958E
:10091000C7953A95E1F7CF709C2FEC01D0693BCF9A
:1009200082389105B1F1B0F48133910509F475C0B5
:1009300048F48932910509F469C08A32910509F4B5
:1009400073C008958533910509F459C08933910521
:1009500001F10895833E9105A9F138F4803E910597
:10096000F9F0823E910549F10895863E9105A9F17D
:10097000873E9105C9F1843E910519F52091270222
:1009800021FF1FC08091260284FD14C087EE90E0F5
:100990000895209126022370A1F080EE90E0089542
:1009A0002091260220FD47C03091270230FF09C068
:1009B00024FF44C090E080E004C02091260222FD84
:1009C000F7CF08952091260222FD3BC030912702E7
:1009D00030FDE3CF24FFF5CFEDCF2091260223FF9A
:1009E000F0CF24FDE7CFD2CF2091260223FD2CC0EB
:1009F0003091270231FFEECF84EE90E008952091F0
:100A0000260225FFDECF89E290E00895209126029C
:100A100025FFD7CF85E390E008952091260226FF99
:100A2000D0CF8AE290E008952091260226FFC9CF18
:100A300081E390E0089589E390E0089583EE90E0EB
:100A4000089582EE90E0089586EE90E008959091EA
:100A5000260292FF06C0282F28712830F9F4877FDC
:100A6000846093FF06C0282F28712831F1F4877E17
:100A700084612091270220FF06C0382F387138305A
:100A8000D9F4877F816021FF06C0282F2871283183
:100A9000D1F4877E816194FD877E0895282F24718B
:100AA0002430F9F68B7F8860DCCF282F2471243125
:100AB00001F78B7E8861DDCF382F3171313019F726
:100AC0008E7F8860E0CF282F2171213121F78E7E23
:100AD0008861E1CF089508950C946B05E82FF0E04C
:100AE000EE0FFF1FE95FFD4F80819181089508950A
:100AF000CF93ADE1B1E04DE251E061E070E08D9166
:100B00008F3F91F0E82FE295EF70F0E0C1A18F7078
:100B10009B0101C0220F8A95EAF7922F90959C23A2
:100B200091A382A1822B82A34A175B0741F71092FF
:100B3000060210920502109208021092070281E04C
:100B40000E94F705CF910C94FD02CF93DF93609143
:100B50000502709106021092060210920502EDE164
:100B6000F1E050E040E0A1E0B0E021912F3F01F141
:100B7000C22FC295CF70D0E088A190E02F7002C044
:100B8000959587952A95E2F780FD2EC0CD01042E1C
:100B900002C0880F991F0A94E2F79C018091050218
:100BA00090910602822B932B90930602809305026C
:100BB0004F5F5F4F40315105C1F6C1E080910502A2
:100BC000909106028617970709F4C0E02C2F41E0A8
:100BD00067E072E085E092E00E94F8050E9407035A
:100BE0008C2FDF91CF91089530E020E0D7CF08958A
:100BF000FF920F931F93CF93DF93F82E092F162F99
:100C0000D72FC42F222349F081E0809354010E9402
:100C1000571B909353018093520180915401882374
:100C2000A1F080915201909153010E94631B06979D
:100C300060F0EF2DF02FA12FBD2F90E080E0D0E0ED
:100C40008C179D0744F010925401DF91CF911F91B2
:100C50000F91FF900895219131912D933D9301962D
:100C6000EFCFAF92BF92CF92DF92FF920F931F937D
:100C7000CF93DF93362F472FE82FF0E0ED51FE4F53
:100C800071110DC06491762F862FDF91CF911F9146
:100C90000F91FF90DF90CF90BF90AF900895C72F36
:100CA000D0E02491F22E022F10E056E0659FC001A3
:100CB0001124EFEFF0E0BF010E944422832F90E067
:100CC000880F991F35E5369FD001379FB00D11244D
:100CD0008A1B9B0B982F990F980F6F01CC1ADD0A76
:100CE000C09ED001C19EB00DD09EB00D11248B2F9F
:100CF000949FA0011124452F55276F01C41AD50ACE
:100D0000C09EA001C19E500DD09E500D11245F01C8
:100D1000A91AB108AC9E6001AD9ED00CBC9ED00C4F
:100D20001124CD2CDD24EC19FD09E09FE001E19FA9
:100D3000D00DF09FD00D1124ED2F62307105A1F080
:100D400048F46115710569F06130710589F0EB2F88
:100D5000852F07C06430710571F088F06630710529
:100D6000B1F76E2F722F91CFE22F2B2F8D2FF9CF4E
:100D7000E22F252FF6CFEB2F822F2D2FF2CF2B2F07
:100D80008F2DE52FEECF0895CF93DF93762FE901D6
:100D9000682F842F0E943106798368838A83DF91CC
:100DA000CF91089580910902982F9E7F29F4817038
:100DB00082608093090208958A34E8F38170886420
:100DC000F8CF88E090E00C949322CF92DF92EF92DC
:100DD000FF926B017C010E94D206B701A60188E058
:100DE00090E0FF90EF90DF90CF900C94B122E9E07B
:100DF000F2E083E0808311828FEF82838383148209
:100E000060817181828193810C94E5068091090251
:100E100080FF02C08695089580E0089580910D02BC
:100E2000833018F48F5F80930D02609109027091F6
:100E30000A0280910B0290910C020C94E5068091BD
:100E40000D02882319F0815080930D0260910902F0
:100E500070910A0280910B0290910C020C94E506AD
:100E60006091040170E08091090280FF0AC08091C6
:100E7000590123E0829FC0011124825F9D4F0C9491
:100E8000A20C809158019091030123E0829FF00110
:100E90001124E25FFD4F891750F7118210821282F0
:100EA0008F5F3396F8CF9091090290FF14C0909114
:100EB00058012091030133E0939FF0011124E25F78
:100EC000FD4F921710F00C943007818360834283AA
:100ED0009F5F3396F6CF0895CF93DF9300D00F92A4
:100EE000CDB7DEB79091090290FF0AC09E012F5F37
:100EF0003F4F0E94C4064B8169818A810E9453073B
:100F00000F900F900F90DF91CF910895CF93DF93C3
:100F1000EC01EC81F0E0E252FF4F4491E9E0F2E0B5
:100F2000628181810E946C078C818F5F8C83DF914D
:100F3000CF910895CF93DF93EC01E9E0F2E0438194
:100F400062818C810E946C078C818F5F8C83DF9122
:100F5000CF9108950F931F93CF93DF9300D00F92FB
:100F6000CDB7DEB78C018091550181110AC09E0179
:100F70002F5F3F4F4FEF6FEF0E94C4068A8180932F
:100F80005501F8016481613069F08091550140E0BC
:100F9000662361F040E0623011F44091550180E039
:100FA00060E004C06091550140E080E00E9453077A
:100FB000F801848190E0019663E070E00E9458227D
:100FC00084830F900F900F90DF91CF911F910F911D
:100FD0000895AF92BF92CF92DF92EF92FF920F935C
:100FE0001F93CF93DF9300D00F92CDB7DEB7182FAA
:100FF000F62E042FE22E9091090290FF29C0E92FCE
:10100000E695AE2FB0E0A35DBE4F8C918093610159
:101010009E7F923059F59E012F5F3F4F812F0E9496
:10102000C4064B8169818A810E94530710930A028A
:10103000F0920B0200930C02EE2051F06091090235
:1010400070910A0280910B0290910C020E94E506B9
:101050000F900F900F90DF91CF911F910F91FF9004
:10106000EF90DF90CF90BF90AF900895823019F449
:1010700000910C02DBCF863019F410910A02D6CF12
:101080008930D9F3893191F6E9518E2F8170D82EAC
:10109000E695F0E0E252FE4FA590B490C12CBB243F
:1010A00060910201C61618F00E943007BFCF2C2DA8
:1010B00030E0A29EC001A39E900DB29E900D11241F
:1010C00070E00E944422812FD11013C0860F4091FE
:1010D0005801420F532F511D9A01220F331F240F25
:1010E000351F225F3D4F402F6F2D0E94C406C394D1
:1010F000D7CF861BECCFE9E0F2E09181282F438126
:10110000628188E0890F0C94E90781E00C947B08E8
:10111000E9E0F2E09181282F4381628188EF890F15
:101120000C94E90781E00C948808E9E0F2E0628120
:1011300021E1620F08F46FEF282F438181810C9425
:10114000E90781E00C949508E9E0F2E0628121E191
:10115000621B08F460E0282F438181810C94E90729
:1011600081E00C94A408E9E0F2E0438121E1420F20
:1011700008F44FEF282F628181810C94E90781E008
:101180000C94B308E9E0F2E0438121E1421B08F44A
:1011900040E0282F628181810C94E90781E00C9462
:1011A000C20820E00C94E907EF92FF921F93CF93BF
:1011B000DF93EC0110E0EE24EA94F12C609102013F
:1011C000161770F00E9430079A818C8190FF27C01B
:1011D0008F5F8C83DF91CF911F91FF90EF900895E7
:1011E00020915801422F410F5527551FCA019A01DE
:1011F000220F331F280F391F225F3D4F70E0C701B8
:101200000E945822962F8C8140910C0260910B0213
:10121000199F800D11240E94C4061F5FCFCF8150FB
:10122000D8CFAF92BF92CF92DF92EF92FF920F93FF
:101230001F93CF93DF93FC0182810FEF80FF01E0CA
:1012400010E045E0A42E809102011817C8F00E941A
:10125000300780915701013009F055C0811102C05B
:1012600080910201815080935701DF91CF911F91AE
:101270000F91FF90EF90DF90CF90BF90AF900895C7
:10128000C0915801C12ED12CCC0DDD2DD11DCE0128
:10129000880F991FC80FD91FC25FDD4F19821882AE
:1012A0001A8234E0E32EF12CB12C809157018B0D82
:1012B00086301CF16A2D0E943622892F082E000CE0
:1012C000990BC816D90691F480910C028E9DA0014D
:1012D0008F9D500D112455954795559547959E0125
:1012E00060910B0280910A020E94C406B00EF1E0E8
:1012F000EF1AF108D1F61F5FA6CF87FFDFCF9091DD
:101300000201890FDBCF90E001966091020170E04D
:101310000E945822A8CF0F931F93CF93DF93809101
:1013200058019091030123E0829FF0011124E25FB4
:10133000FD4F891740F1C0E0D3E060910201C6176C
:1013400040F10E9430072091000180915601820FE8
:101350008093560190910101920F9093010119160B
:1013600054F4082E000C990B409102014150550B8A
:10137000841795071CF0219520930001DF91CF91F0
:101380001F910F9108951182108212828F5F339600
:10139000D0CF0C2F10E070E0C8010E94582220919D
:1013A0005801820F482F50E020915601022E000C68
:1013B000330B02171307BCF020910101022E000C21
:1013C000330B201731077CF08D9F90011124225F91
:1013D0003D4F40910C0260910B0280910A020E94E5
:1013E000C406CF5FAACFFA01EE0FFF1FE40FF51F6F
:1013F000E25FFD4F118210821282F3CF0F931F9391
:10140000CF93DF938C01FC018481958101968170DB
:10141000992795838483C0E0D5E580910201C817A0
:1014200030F0DF91CF911F910F910C9430072091F4
:101430005801422F4C0F5527551FCA019A01220F00
:10144000331F280F391F225F3D4F8C2F8695F801DF
:1014500044815581840F952F911D817040910C021C
:1014600060910B028D9F802D11240E94C406CF5FD6
:10147000D4CF0F931F93CF93DF93EC0110E000E0E4
:10148000909102019017110609F06CF40E94300748
:101490008C8190E00196817099278C83DF91CF91A8
:1014A0001F910F91089520915801A801420F511DDD
:1014B0009A01220F331F240F351F225F3D4F4C81AD
:1014C00060910B0280910A0296959017110651F0D7
:1014D0004CF0442349F040910C020E94C4060F5F77
:1014E0001F4FCECF4423B9F340E0F7CFE9E0F2E05D
:1014F00080818E7F808360817181828193810E944F
:10150000E506109262012FEF80E792E021508040C3
:101510009040E1F700C000000C9430076091090290
:10152000669570E04BE050E085E091E00E947E22FD
:10153000892B19F481E0809362010E94571B9093DC
:101540005B0180935A0108959091090290FF35C084
:101550009170811128C0926090930902662351F026
:101560006091090270910A0280910B0290910C0225
:101570000E94E50660910902669570E04BE050E03C
:1015800085E091E00E947E22892BA1F010926201F9
:1015900081E080935D0140910C0260910B0280918B
:1015A0000A020C94D108853210F09864D5CF880FC8
:1015B000982BD2CF0E948E0AEBCF0895682F90917E
:1015C0000902969581E0890F853208F081E00C943C
:1015D000A40A81E00C94DE0A682F90910902969586
:1015E0008FEF890F09F484E20C94A40A81E00C9433
:1015F000EC0A61E00C94A40AE9E0F2E080818160E9
:10160000808386950C94F90A8091090280FD0C94E0
:10161000760A0C94FC0A60E00C94A40A80916001A4
:1016200081112EC00E947819811104C00E94151AE0
:101630000E94F7060E94E1066093090270930A0275
:1016400080930B0290930C026E7F61F40E94F70668
:101650000E94E1066093090270930A0280930B02D4
:1016600090930C020E94D2061092620180910902AE
:1016700080FF03C086950E940B0B81E08093600180
:1016800008950F931F93CF93DF9380916201882376
:1016900009F48DC080916101E0910902E695E81B93
:1016A000E0935C018230C9F5F0E0E652FF4FE4912F
:1016B000CE2FD0E006E817E080915D01882389F005
:1016C00010925D010E94571B9E0120953095820F5C
:1016D000931F90935B0180935A0110925F011092C7
:1016E0005E0180915A0190915B010E94631B8C17EF
:1016F0009D0708F45CC0E0915A01F0915B01CE0FA8
:10170000DF1FD0935B01C0935A018AE591E0F80195
:10171000DF91CF911F910F910994863049F4F0E049
:10172000E952FF4FE491CE2FD0E00AE917E0C4CF91
:10173000893051F4E695F0E0EC52FF4FE491CE2F62
:10174000D0E004ED18E0B8CF8F3051F4E695F0E02A
:10175000EF52FF4FE491CE2FD0E001E119E0ACCF82
:10176000853149F4F0E0E253FF4FE491CE2FD0E011
:101770000BE819E0A1CFC8EED3E00EEF19E08831F5
:1017800009F49ACF833239F4ECECF0E0C591D491AE
:101790000AEA17E091CFC4EFD1E009E31AE08432FE
:1017A00009F48ACFC0EDD7E003EC16E085CFDF91D6
:1017B000CF911F910F910895FA01811101C0FB0192
:1017C0000994CF93DF93C82FD62F0E9406078C175A
:1017D00040F00E9406078D1720F4DF91CF910C9402
:1017E000E90A8C2FDF91CF910C94F90A0F931F9384
:1017F000CF938C01FB01C281CC2309F465C00E9408
:10180000C6188272F801E25CFC45E431F10538F457
:10181000EB52FD4D0C946C220E94040BC0E08C2F07
:10182000CF911F910F91089546EF5AE069EE7AE04B
:101830000E94DC0BF3CF49EE5AE066EF7AE0F8CF76
:1018400042E958E065E878E0F3CF45E858E062E91E
:1018500078E0EECF40EB58E061EA78E0E9CF41EA8A
:1018600058E060EB78E0E4CF4EEC58E06FEB78E0C6
:10187000DFCF4FEB58E06EEC78E0DACF4FE157E086
:101880006EE077E0D5CF4EE057E06FE177E0D0CF64
:1018900081E00E94F90AC2CF65E082E00E94E10B7C
:1018A000BDCF68E086E0FACF6EE089E0F7CF64E173
:1018B0008FE0F4CF67E185E1F1CF88E1EACF62E222
:1018C00089E1ECCF83E2E5CFC1E0A9CF27B1342F86
:1018D0003F70A1E0B0E001C0AA0F3A95EAF72A2BC9
:1018E00027B942954F70E42FF0E022A14A2F40958E
:1018F000422332A1A32B5FB7F8949B01220F331F21
:10190000260F371F280F391F2817390741F45FBFEB
:1019100087EC90E00197F1F700C000000895FC010A
:101920006191CF0178E0A8B9000000C067FF48B915
:10193000660F000000C000C000C048B900C07A9522
:1019400091F7E2CF47E60C94660CCF93DF93EC015E
:1019500097FF0CC0FB018281882341F00E94D00CCC
:10196000CE019F770E94140D0E94FC0C81E0DF9154
:10197000CF9108958CE090E00E948B2290E0B0E03F
:10198000A0E080931D0290931E02A0931F02B093CB
:101990002002089560911D028CE090E00C949F223B
:1019A0000E94C618809321020E94D91880911D02BE
:1019B000813089F0882359F0823091F08430B9F079
:1019C0008FE39CE90197F1F700C00000089582EED3
:1019D0000E949A10F5CF88E193E00E94A302F0CF15
:1019E00082EE0E949A1087E50E94ED10E9CF86EE04
:1019F0000E94ED1088E1F8CF80911D02813071F0D6
:101A0000882341F0823031F0843061F080912102EE
:101A10000C94D61882EE0E94C510F8CF8CE20E947A
:101A2000ED10F4CF88E2FBCF0F931F93CF93DF939A
:101A30008C01CCE0D0E0C8010C2E02C096958795B1
:101A40000A94E2F78F700E9409030E94ED10249718
:101A5000CC3F8FEFD80779F7DF91CF911F910F918E
:101A600008950F931F93CF93DF93EC018B01FB013C
:101A70008281882371F0C33EFCE5DF0719F188F409
:101A8000C13EECE5DE07C9F081E0C23EFCE5DF07C0
:101A900089F0B801CE01DF91CF911F910F910C9485
:101AA000A50CC43E8CE5D80779F084E0C53EECE592
:101AB000DE0779F780931D0202C010921D020E947A
:101AC000CA0CE7CF82E0F6CF83E0F4CF0F931F93E9
:101AD000CF93DF93C62FD42F022FFC01828188235E
:101AE000C9F0609365010E94571B90936401809335
:101AF000630180E28C0F883008F050C0C77081E02D
:101B000001C0880FCA95EAF7DF91CF911F910F911D
:101B10000C94001110916501161335C0809163017A
:101B2000909164010E94631B8C32914060F5C0E289
:101B3000CD0F1D17B9F080E2810F883040F4177087
:101B400081E001C0880F1A95EAF70E940711C8309A
:101B500048F481E09D2F977001C0880F9A95EAF7AD
:101B60000E940011802F0E94ED10C830B8F4D77089
:101B700081E001C0880FDA95EAF7DF91CF911F91DC
:101B80000F910C94071180E28C0F883038F4C770E5
:101B900081E001C0880FCA95EAF7EFCFDF91CF91BE
:101BA0001F910F9108959C01CB01233F4CE5340711
:101BB00031F190F4283DFCE53F07E9F0293D4CE583
:101BC000340769F1273D3C4579F426E241EE61EEA8
:101BD0000E94660D80E00895253FFCE53F07B9F0BF
:101BE00090F0263F3C45B9F0FC0182818823D1F07A
:101BF00010926501089527E245EE65EEE9CF26E2F1
:101C000041EE60EEE5CF27E245EE64EEE1CF26E25D
:101C100041EE62EEDDCF27E245EE66EED9CF28E257
:101C200041E0EBCF81E00895CF93DF93EC01FB011E
:101C30008281882309F419C1C230FCE5DF07C0F1B5
:101C4000C6319CE5D90730F09E012A5F3C4529301A
:101C5000310570F50E948B1990932702809326021C
:101C6000C031ECE5DE0709F4CFC008F05BC0C83036
:101C70008CE5D80709F4B6C088F5C430ECE5DE077A
:101C800009F4A8C0C0F4C2308CE5D80709F49CC0A0
:101C9000809126028260C330DC4509F498C08091AF
:101CA0002602909127020E9499190E94471380E012
:101CB000DF91CF910895809126028061C630ECE5D6
:101CC000DE0709F484C0809126028860C730DC45B5
:101CD00008F47DC080912602806279C0CC308CE50A
:101CE000D80709F489C070F4809126028C60CA304C
:101CF000ECE5DE0709F46BC008F478C08091260299
:101D00008E7F65C0CE308CE5D80709F479C080910C
:101D100026028B7FCF30DC4508F459C08091260223
:101D20008F7E55C0CB3FECE5DE0709F457C030F598
:101D3000C3318CE5D80709F46FC078F4C131ECE504
:101D4000DE0709F465C0C231DC4509F0A8CF0E9466
:101D50004713809126028F773AC0C5318CE5D807AA
:101D600009F462C008F476C0809127028160CA3FFE
:101D7000DC4509F094CF8093270291CFCF3FFCE55B
:101D8000DF0709F44DC088F4809127028D7FCD3F95
:101D90009CE5D90781F3809127028E7FCE3FDC45F9
:101DA00050F3809127028360E6CFC130FDE5DF0765
:101DB00009F459C008F444C080E0C230DD4509F0A0
:101DC0006ECF0E94171A6BCF80912602816080939C
:101DD000260265CF809126028460F9CF8091270288
:101DE0008260C9CF809126028064F1CF0E944713A0
:101DF000809126028068EBCF809126028D7FE7CF0D
:101E000080912602877FE3CF809126028F7DDFCFEE
:101E1000809126028F7BDBCF80912602837FD7CFF4
:101E2000809127028C7FA7CF8091260282FB992781
:101E300090F921E0922790FB82F990FB83F9C7CFBC
:101E400080912702982F909591708E7F892B90FB1F
:101E500081F991CF0E94471390912602892F97FB19
:101E600087F98058B4CF81E0ACCF81E021CFCF9308
:101E7000DF93EB0186319C4511F50E94C6189A81CB
:101E8000992399F08A7A91E009F490E090936601A1
:101E9000811109C089E20E94A1180E94151980E0F1
:101EA000DF91CF91089585E3F6CF8091660181118E
:101EB00004C089E20E94A818F0CF85E3FBCF81E03F
:101EC000EFCF90936C0180936B010895E0916B01CB
:101ED000F0916C01309721F00190F081E02D099490
:101EE00080E00895E0916B01F0916C01309799F0DA
:101EF00020911C01222359F02091260227FF07C0C0
:101F0000DC012C9111962C93119725E02C930280E3
:101F1000F381E02D099408952091690130916A01BF
:101F20002817390771F090936A0180936901E09155
:101F30006B01F0916C01309721F00680F781E02D64
:101F40000994089520916701309168012817390795
:101F500071F09093680180936701E0916B01F091BB
:101F60006C01309721F00084F185E02D09940895EB
:101F700085B7806885BF85B7806885BF0895089557
:101F800008950C94BF0F08950C94C30F0E94B80FCE
:101F90000E94C00F0C94C10F81E008950E944E1B57
:101FA0000E9478050E94A71B0E940E0B0C94C40F80
:101FB000CF92DF92EF92FF920F931F93CF93DF9315
:101FC000CDB7DEB72A970FB6F894DEBF0FBECDBFF0
:101FD0000E94A5050E94CC0F811133C08FEF898329
:101FE0008A831B820E94571B8160782F9D838C837C
:101FF00049815A816B818D810E946B100E94410B37
:102000000E94660F90916D01891709F455C00E94D6
:10201000660F80936D012A960FB6F894DEBF0FBE4F
:10202000CDBFDF91CF911F910F91FF90EF90DF9087
:10203000CF900C941E038F5FEE0CFF1C8031B9F41F
:10204000CDCF80E00E946E058C01C0906E01D090D3
:102050006F01C816D90611F28091E00181FD0E943E
:10206000770580E0EE24E394F12CC026D12696017A
:102070002E213F21232BF9F28E831F820E211F2157
:1020800081E0012B09F480E088870E94571B816062
:10209000782F9A8789874E815F8168858A850E941B
:1020A0006B1080916E0190916F01E826F926F092F5
:1020B0006F01E0926E01A2CF2A960FB6F894DEBFB0
:1020C0000FBECDBFDF91CF911F910F91FF90EF9089
:1020D000DF90CF900895CF93DF93CDB7DEB72B97E6
:1020E0000FB6F894DEBF0FBECDBF4F835887698708
:1020F0007A878B871E821D8285E0FE013796DE017E
:10210000119601900D928A95E1F749815A816B8170
:102110007C818D819E812B960FB6F894DEBF0FBE19
:10212000CDBFDF91CF910C94BE15FC0180819181D0
:102130000C947318CF93C82F882329F18CEF8C0F40
:10214000813AA0F46C2F80911001909111010E94AE
:10215000301A882329F08C2F0E94A8180E94151984
:102160008C2F0E94A118CF910C94151980E28C0F2E
:10217000883048F4C77081E001C0880FCA95EAF73B
:102180000E94C918F0CFCF910895882329F19CEFC0
:10219000980F913A20F40E94A8180C94151990E217
:1021A000980F983050F4877091E001C0990F8A958C
:1021B000EAF7892F0E94CF18F0CF9BE5980F933054
:1021C00020F490E080E00C948C0F885A873120F442
:1021D00090E080E00C94A20F0895CF93C82F0E9446
:1021E0009A10C93349F42FEF87EE93E021508040D5
:1021F0009040E1F700C000008C2FCF910C94C510E7
:10220000882321F00E94C9180C9415190895882379
:1022100021F00E94CF180C9415190895BF92CF9207
:10222000DF92EF92FF920F931F93CF93DF936C0196
:10223000D62FC72FFC01158112951F700281011145
:102240000E94E9180E94BF18E82E882371F000232D
:10225000B1F080E28D0F883090F082E00E9460192A
:102260000E94BF1891E0E82EE926BC2EB2949FE0B0
:10227000B922EB2DF0E0E751FD4D0C946C22E12CDE
:10228000F4CF1C2F1F70C07F11F01295107F002318
:10229000A9F0112359F080E28D0F883010F0D11190
:1022A00009C0812F0E94C9180E9415198D2F0E9404
:1022B0009A1014C0812F0E94DC18F6CF8D2F0E9437
:1022C000C510112359F080E28D0F883010F0D11124
:1022D0002CC0812F0E94CF180E9415192B2D285039
:1022E000330B2430310520F40E94660F0E941E0338
:1022F000EE2009F477C10E94BB1880FD73C1F6017E
:1023000012820E94B5180E944217C6010E94131340
:102310000E94B518DF91CF911F910F91FF90EF9020
:10232000DF90CF90BF900C946317812F0E94E2182A
:10233000D3CFFC2FFF70FF2EC07FC03219F0F29474
:1023400080EFF822DD2369F0D13049F1002391F1CB
:10235000112351F1F601858180FFA8CF8F7085830D
:1023600023C0002381F0111106C00E94FC188F29A0
:102370000E940011B3CF1130C1F70E94FC188F29C1
:102380000E940219ABCF111106C00E940B198F2DAC
:102390000E940711A3CF113009F4A0CFF6CF00237C
:1023A00029F0163008F09ACF8F2DE2CF153008F0C3
:1023B00095CFEDCF112359F3D93349F4FFEF27EE31
:1023C00033E0F15020403040E1F700C000008D2F95
:1023D0000E94C51083CF8C2F837009F041C001117A
:1023E0007DCF4D2F429546954770440F440F0D2FDA
:1023F0000F7010E030E020E0042E04C0000F111F29
:10240000221F331F0A94D2F760E070E0CB01D4FFA3
:102410000FC06FE070E080E090E004C0660F771FAF
:10242000881F991F4A95D2F7609570958095909571
:10243000C695C695C370602B712B822B932BC2302F
:1024400049F058F4C13019F00E94F41647CF0E94A9
:10245000E21644CF0E94061741CF0E94E0163ECFFD
:102460008695002311F08C2F8170882309F436CFD4
:102470004D2F429546954770440F440F0D2F0F7016
:1024800010E030E020E0042E04C0000F111F221FD6
:10249000331F0A94D2F760E070E0CB01D4FF0FC085
:1024A0006FE070E080E090E004C0660F771F881F47
:1024B000991F4A95D2F76095709580959095C6952D
:1024C000C695C370602B712B822B932BC23049F0C1
:1024D00058F4C13019F00E94B91700CF0E94A71715
:1024E000FDCE0E94CB17FACE0E941C17F7CECF70FC
:1024F000002329F08C2F0E9442178D2F39CF8D2F6A
:102500000E9407118C2F0E946317E8CED23F89F1F9
:1025100060F4D03FC9F0D13F29F1002309F442C053
:102520001111C4CE8C2F8F7121C0D33F39F1D43F0C
:10253000A1F7002369F1CF718C2F0E94421763E04D
:102540008C2F0E944B19CACE002341F0153008F0A1
:10255000C5CE8C2F8F710E948617C0CE163008F022
:10256000BDCEF7CF8C2F8F71002369F20E944217E6
:10257000B5CE8C2F8F710023C9F3C5CF002329F06E
:102580008C2F8F710E942D17A9CE0E942817A6CEDE
:1025900081E00E946019123008F4A0CE82E00E940F
:1025A00060199CCE112359F0D93309F010CF8FEF69
:1025B00097EEE3E081509040E040E1F706CF8C2FAA
:1025C0008F71A1CF4C2F4F706D2FC6010E947E03DB
:1025D0000E94581683CE4C2F4F706D2FC6010E945B
:1025E00081037CCEDF91CF911F910F91FF90EF90EF
:1025F000DF90CF90BF9008950F931F93CF93DF93F9
:10260000EC01688179818A810E947D188C010E9489
:10261000DD170E94DF16B801CE01DF91CF911F9127
:102620000F910C940E11CF93DF93EC018B819C8161
:10263000892B29F08881998189238F3F19F4DF91B3
:10264000CF910895CE010E9436038823C1F3CE01B5
:102650000E94FC12CE01DF91CF910C94F2028823EC
:1026600021F00E94DC180C9415190895882321F09C
:102670000E94E2180C94151908950E94E9180E940E
:10268000F9180C9415190E94AF180C943D130E9470
:10269000D9180C944313E92FE295EF70E250EE3015
:1026A00070F4F0E0E750FD4D0C946C22803F19F07F
:1026B00020F4883E20F481E00895843FE1F380E037
:1026C0000895883EC0F3813FD1F7F5CF93FB88276B
:1026D00080F908950E9473180C944B13CF93DF93E5
:1026E00000D000D00F92CDB7DEB70F900F900F90B3
:1026F0000F900F90DF91CF910895CF93DF9300D08B
:1027000000D000D0CDB7DEB726960FB6F894DEBF66
:102710000FBECDBFDF91CF9108951F93CF93DF936D
:10272000C091710116E0809172018C1304C0DF9199
:10273000CF911F910895D0E01C9FF0011D9FF00DD7
:102740001124ED58FE4F4081518162817381848153
:1027500095810E947D132196C770E5CF4091A3011A
:102760005091A4016091A5017091A6018091A701EB
:102770009091A8010C947D131F93CF93DF938091C8
:10278000A801807FA9F48091A501882389F0809118
:102790007101C09172016091A3017091A401A09197
:1027A000A601B091A701D62FD72316E0C81304C005
:1027B000DF91CF911F91089590E0109711F0DF3FC6
:1027C00019F401968770F2CF189F9001199F300D70
:1027D0001124F901ED58FE4F41814713F2CF40819A
:1027E0004613EFCF42814111ECCF438154814A1B04
:1027F0005B0B4C32514028F78091A8018F708061AB
:102800008093A801F901E858FE4F80818F708061A4
:10281000808383EA91E00E941313DF91CF911F918F
:102820000C948D13AF92BF92CF92DF92EF92FF92F2
:102830000F931F93CF93DF93CDB7DEB761970FB69A
:10284000F894DEBF0FBECDBF8C0185E0F801DE013C
:102850001D9601900D928A95E1F7F8014081518112
:10286000E28083EAC82E81E0D82E6091A6017091A3
:10287000A7016115710509F462C19091A30120912E
:10288000A401892F82238F3F09F459C1A380B4800A
:10289000F090A501F501E61BF70BBF01FF2009F43D
:1028A000FCC08091A801382F307F6C32714008F055
:1028B000B2C0311179C0FE2C251323C0941321C05E
:1028C000E1101FC08F7080618093A8010E94AE1339
:1028D000C6010E9413138091A801F80185838F2DF2
:1028E00061960FB6F894DEBF0FBECDBFDF91CF91DA
:1028F0001F910F91FF90EF90DF90CF90BF90AF901E
:102900000895AB2829F0842F85238F3F09F033C128
:1029100080E0F82FF170DF2E80FF3CC080917101C4
:102920002091720136E0821315C04D875E878D8538
:102930009E850E947318292F22952F702230F0F067
:10294000243018F59F70F1F0F8019581907FD1F453
:10295000D12C1EC090E0389FF001399FF00D11245A
:10296000ED58FE4F6181651306C06081641303C09A
:1029700062816E110FC001968770D5CF9F7011F0E4
:10298000882331F3805E883018F3C8010E94131346
:10299000FD2CA5CFEE2009F4A2CF8091A801816083
:1029A0008093A801F12C9BCF251306C0941304C07B
:1029B000F801EE2009F48DC04D875E878D859E85D8
:1029C0000E946A13882319F1EE2009F18091A80171
:1029D000803270F02091A3013091A40138872F83B9
:1029E0001986BB86AA868C87CE0107960E94131390
:1029F00086E0F801A3EAB1E001900D928A95E1F733
:102A00000E94BC130E94AE13FF24F39468CFC80148
:102A10000E941313F9CF311113C07A2DB98AA88AF5
:102A20006E2D89890E946E1383EA91E00E94131330
:102A300086E0F60111928A95E9F70E94AE13B2CFB3
:102A400025130FC094130DC0E1100BC0F80185834E
:102A5000C8010E94131386E0F60111928A95E9F7E6
:102A60003ECF4D875E878D859E850E946A138823A1
:102A700071F2EE2061F28091A801803208F4B8CFA3
:102A80002091A3013091A4013A8329831B82BD8246
:102A9000AC828E83CE010196A9CF6C32714008F0D2
:102AA00041C0FE2CEE2009F4B2CF25132AC09413A6
:102AB00028C08091A80180FD1BC0982F907FC1F095
:102AC000F8018583903F31F0982F907F905F8F7051
:102AD000892B8583C8010E94131386E0F801A3EABD
:102AE000B1E001900D928A95E1F70E94AE13F7CE06
:102AF00086E0F801A3EAB1E001900D928A95E1F732
:102B0000EECE4D875E878D859E850E946A1381116A
:102B10006FCF8091A80181608093A801C8010E94B5
:102B20001313DDCE7A2DB98AA88A6E2D89890E9469
:102B30006E1386E0F60111928A95E9F7D6CFEE2062
:102B400009F465CF4D875E878D859E850E946A1347
:102B5000F82E882309F45BCF86E0F801A3EAB1E000
:102B600001900D928A95E1F783EA91E00E94951019
:102B70000E94BC13BACF81E08E25CBCE1F93CF939A
:102B8000DF93CDB7DEB72C970FB6F894DEBF0FBE3C
:102B9000CDBF4F83588769877A878B879C87CE0103
:102BA00007960E941214882369F08A859B85892BD9
:102BB00039F04F815885842F85238F3F09F071C0EC
:102BC00016E05FC086E0FE013796DE0111960190A7
:102BD0000D928A95E1F78A859B85892B89F38885F3
:102BE0009F8189238F3F61F32091720130E0C901F9
:102BF000019687709927409171014817190671F461
:102C00000E944713109272011092710186E0E3EA6C
:102C1000F1E0DF011D928A95E9F7D2CF96E0929F0D
:102C2000D001939FB00D1124AD58BE4FFE013196D7
:102C300001900D929A95E1F7809372010E948D1395
:102C4000BFCF819FC00111248D589E4F0E94121446
:102C50008823E9F0E09171011E9FF0011124ED58E5
:102C6000FE4F4081518162817381848195810E94F0
:102C70007D138091710190E0019687709927809370
:102C8000710180917101909172018913DACF2C96B4
:102C90000FB6F894DEBF0FBECDBFDF91CF911F916D
:102CA000089569857A858B859C850E947D1388CFE0
:102CB000EF92FF920F931F93CF93DF938C01892B99
:102CC00081F0F12CEE24E394E8012196F80184913F
:102CD000843770F4843008F05FC08130B1F0823006
:102CE000A1F1DF91CF911F910F91FF90EF90089587
:102CF000853709F44CC008F43DC09CE7980F903725
:102D000080F78F770E94C51049C00E5F1F4FFE01EC
:102D1000849190E2980F983060F48770FE2D01C086
:102D2000FF0F8A95EAF78F2F0E94EC180E94151961
:102D300002C00E949A108F2D815030F2EFE9FFE01F
:102D40003197F1F700C00000F7CF0E5F1F4FFE0173
:102D5000849190E2980F983050F48770FE2D01C056
:102D6000FF0F8A95EAF78F2F0E94F218DFCF0E949B
:102D7000C510E1CF0E5F1F4FFE01C491C150D8F2C4
:102D80008FE99FE00197F1F700C00000F7CF0E5FD9
:102D90001F4FFE01F490CFCF0E949A108E01CBCF2F
:102DA00008950C94D0160E94D1166093B7017093C9
:102DB000B8018093B9019093BA010C943D13089522
:102DC0000C94D3160F931F930091B7011091B80183
:102DD0002091B9013091BA01602B712B822B932B7A
:102DE0001F910F910C94D3160F931F930091B7016D
:102DF0001091B8012091B9013091BA01602371237B
:102E0000822393231F910F910C94D3160F931F933A
:102E10000091B7011091B8012091B9013091BA0128
:102E200060277127822793271F910F910C94D31647
:102E30000C94D0160C9418170E941A176093B301C3
:102E40007093B4018093B5019093B6010C943D1337
:102E500060E070E0CB010C941C170F931F9341E0CE
:102E600050E060E070E08A019B0104C0000F111F78
:102E7000221F331F8A95D2F7C901B8011F910F9104
:102E80000C941C170F931F9341E050E060E070E03A
:102E900004C0440F551F661F771F8A95D2F7809193
:102EA000B3019091B401A091B501B091B6018A012E
:102EB0009B01082B192B2A2B3B2BC901B8011F9111
:102EC0000F910C941C170F931F9341E050E060E0AA
:102ED00070E004C0440F551F661F771F8A95D2F714
:102EE000CB01BA0160957095809590950091B301E2
:102EF0001091B4012091B5013091B6016023712386
:102F0000822393231F910F910C941C170F931F93EF
:102F100041E050E060E070E004C0440F551F661FC0
:102F2000771F8A95D2F78091B3019091B401A09157
:102F3000B501B091B6018A019B01082719272A27FC
:102F40003B27C901B8011F910F910C941C170F93D7
:102F50001F930091B3011091B4012091B5013091FC
:102F6000B601602B712B822B932B1F910F910C9428
:102F70001C170F931F930091B3011091B40120917E
:102F8000B5013091B60160237123822393231F91F1
:102F90000F910C941C170F931F930091B301109184
:102FA000B4012091B5013091B601602771278227C5
:102FB00093271F910F910C941C1708959295907F61
:102FC000890F982F977041E001C0440F9A95EAF756
:102FD00086958695869595E0899FF0011124E755A1
:102FE000FE4F30E020E070E05191DF011197CB01FE
:102FF000022E02C0969587950A94E2F7817081951A
:103000008527842385278C932F5F3F4F25303105FB
:1030100059F708959295907F890F982F977086950C
:103020008695869525E0829FF0011124E755FE4F95
:1030300050E040E080E0219130E0092E02C036955A
:1030400027950A94E2F721703327042E01C0220F3E
:103050000A94EAF7822B4F5F5F4F4530510559F7CD
:103060000895BF92CF92DF92EF92FF920F931F933A
:10307000CF93DF938C01C090B301D090B401E09066
:10308000B501F090B6018091B7019091B801A0917F
:10309000B901B091BA01C82AD92AEA2AFB2ACFE19C
:1030A000D0E0BC2ED701C6010C2E04C0B695A79562
:1030B000979587950A94D2F780FD0EC0219788F7DF
:1030C000B12C8B2DDF91CF911F910F91FF90EF903D
:1030D000DF90CF90BF900895B8018C2F0E949D0380
:1030E000019761F3EECFCF93DF93EC010E9431188B
:1030F000BE01DF91CF910C949D031F93CF93DF937B
:10310000EB0190917001992331F0CB01DF91CF91C8
:103110001F910C947318882379F0CB010E94311809
:10312000182F682FCE010E94DE17BE01812FDF917C
:10313000CF911F910C949D03CB010E940A18182F68
:10314000F4CF682F80911001909111010C94B01A66
:10315000682F80911001909111010C94BB1A8091FD
:103160001001909111010C94C61A8091BB018595B4
:103170008595859508958091BB01877008959091FC
:10318000BB01977081E009F480E008958091DF0130
:1031900008959091DF01892B8093DF010895809538
:1031A0009091DF0198239093DF0108958093DF01D0
:1031B00008951092DF0108959091DE01892B80938C
:1031C000DE01089580959091DE0198239093DE01B1
:1031D00008951092DE0108959091DD01892B80936E
:1031E000DD01089580959091DD0198239093DD0194
:1031F00008951092DD0108958091BC01089508950D
:103200000C94FF189091BC01981721F08093BC0199
:103210000C94001908958091BC01882329F0109224
:10322000BC0180E00C9400190895E0911001F09128
:1032300011018091DF018083E0911001F091110173
:1032400080819091DE01892B8083E0911001F091C3
:10325000110180819091DD01892B80839091BC01C7
:10326000992381F0E0911001F09111018081892B67
:10327000808380911001909111010E941C1A81118C
:103280000E940B1980911001909111010C94720F02
:1032900008950C94481998E0899F90011124622B9D
:1032A0006093BB010E9442178091BB018595859573
:1032B00085950C9449191092BB0180E00C94491932
:1032C0009091BB01809589238093BB01282F2770A3
:1032D00071F4282F082E000C330B9217130639F0C7
:1032E0008595859585950E9463170C945B190895C3
:1032F00090E080E00E94992221E08C3E9E4F09F0F0
:1033000020E0822F089582E090E00C948B2283E0ED
:1033100090E00C948B22CF9384E090E00E948B226B
:10332000C82F81E290E00E948B22982F8C2FCF91A2
:103330000895CF93C92F682F84E090E00E949F22C8
:103340006C2F81E290E0CF910C949F22AB01BC01E5
:103350008FE090E00C94B122AB01BC0183E190E0DE
:103360000C94B12260E070E0CB010C94AC1960E0E9
:1033700070E0CB010E94A6190C94B2196CEE7EEF9E
:1033800090E080E00E94BD2260E082E090E00E9438
:103390009F2260E083E090E00E949F221092B7019C
:1033A0001092B8011092B9011092BA0160E084E065
:1033B00090E00E949F2260E081E290E00E949F22C4
:1033C00060E085E090E00E949F2260E086E090E06F
:1033D0000E949F226FEF87E090E00E949F2240E0D2
:1033E00050E0BA0188E090E00E94B12260E08DE0F8
:1033F00090E00E949F2240E050E0BA0188E190E016
:103400000E94B12260E087E190E00E949F2240E0AC
:1034100050E0BA018CE190E00E94B12260E080E2CD
:1034200090E00E949F220C94B7190C94BE19682F4B
:103430008EE090E00C949F22FC01329680911C015A
:10344000882321F0809126029EE187FF96E080E0AC
:10345000915008F4089521912223D1F38F5FF8CF82
:10346000662301F120911C012223F1F02091260214
:1034700027FF1AC0462F4695469546954E3190F443
:10348000677021E030E002C0220F331F6A95E2F737
:10349000840F911DFC01828190E02823392381E073
:1034A000232B69F480E00895FC013296089621915F
:1034B000261721F0E817F907D1F7F4CF81E0089536
:1034C0009C01FC0132969FEF80E04191461751F03C
:1034D0009F3F19F4411101C0982F8F5F8630A9F7E3
:1034E0009F3F09F40895290F311D97FD3A95F90181
:1034F00062830895FC01329608962191261303C039
:10350000DF0111971C92E817F907B9F70895E62F24
:10351000E695E695E695EE3168F4E80FF92FF11D92
:10352000677021E030E001C0220F6A95EAF78281DE
:10353000822B82830895E62FE695E695E695EE3197
:1035400070F4E80FF92FF11D677021E030E001C041
:10355000220F6A95EAF72095828128232283089515
:1035600020911C01222329F02091260227FD0C9492
:10357000871A0C94601A20911C01222329F02091B3
:10358000260227FD0C949B1A0C947A1AFC013296A1
:1035900080911C01882351F08091260287FF06C08C
:1035A0008EE1DF011D928A95E9F7089586E0F9CF53
:1035B000089508950C94D91A0E94DA1A80912C0269
:1035C000843049F11092E10188E190E020E40FB6E7
:1035D000F894A895809360000FBE2093600080E06F
:1035E0000E941E030E94DA1A83B7817F846083BF22
:1035F00083B7816083BF7894889583B78E7F83BFBC
:103600000FB6F894A895809160008861809360005F
:10361000109260000FBE089508950E94D81A0E946B
:10362000A5050E940C1B80E00E946E0521E0892BFD
:1036300009F420E0822F089508950C941C1B0E9429
:1036400047130E94660F0E941E030C941D1B1F92BD
:103650001FB61F9211248F939F93AF93BF938091B6
:10366000E101811113C08091220290912302A09167
:103670002402B09125024196A11DB11D8093220222
:1036800090932302A0932402B0932502BF91AF919F
:103690009F918F911F901FBE1F90189582E084BD4F
:1036A00093E095BD9AEF97BD80936E0008952FB774
:1036B000F8948091220290912302A0912402B0916B
:1036C00025022FBF08959C014FB7F89480912202E4
:1036D00090912302A0912402B09125024FBF821B3A
:1036E000930B089578941F921FB61F9211248F9305
:1036F0009F93AF93BF938091220290912302A09158
:103700002402B09125020196A11DB11D80932202D1
:1037100090932302A0932402B0932502BF91AF910E
:103720009F918F911F901FBE1F90189587E797E775
:10373000909301088093000888E19AE00FB6F8940E
:10374000A895809360000FBE90936000FFCF0E9409
:103750007819811102C00E94151A0E948319809362
:10376000E0010E948B1990932702809326020E9409
:103770008719682F70E090E080E00C94E01680914B
:103780000202089508950895CF93DF93EC010E94FB
:10379000881D823011F08430B9F580911C01882396
:1037A000B1F18091260287FF32C060E282E080930F
:1037B000E9008FEF9091E800815095FD06C095EDEE
:1037C0009A95F1F700008111F5CF8091E80085FF0F
:1037D0001BC080911C0170E050E040E0811104C0EA
:1037E00050E040E068E070E0CE010E94A51D8091AD
:1037F000E8008E778093E80080E2FE01A2EEB1E05F
:1038000001900D928A95E1F7DF91CF91089568E0DC
:1038100081E0CDCF089580912B02811109C00E94D3
:10382000351F0E94921F8091E20084608093E20025
:10383000089510922B020895089508950C941F1B6B
:1038400042E061EC81E00E94B11E42E261EC82E064
:103850000C94B11E80912E02833009F45FC030F4C5
:103860008130C1F1823009F49BC008958A3009F497
:1038700087C08B3009F46DC0893009F04EC080914B
:103880002D02813209F049C08091310290913202BB
:10389000029708F042C08091E800877F8093E8009B
:1038A0008091E80082FF35C09091F3008091F20092
:1038B000029729F48091F1008B7F813021F480916F
:1038C000F100809302028091E8008B778093E800FA
:1038D0000C94E51E80912D02813AF9F48091E80064
:1038E000877F8093E8008091310290913202892B8A
:1038F00061F460E282EE91E070E00E94F41D80913C
:10390000E8008B778093E800089560E090E080E025
:10391000F3CF80912C028111C3CF089580912D02A5
:10392000813AD9F78091310290913202892BA9F71F
:103930008091E800877F8093E8008091E80080FF15
:10394000FCCF80911C018093F1008091E8008E777C
:10395000BDCF80912D02813201F78091310290918B
:103960003202892BD1F68091E800877F8093E800AE
:103970000E94E51E80912F0280931C010C94471336
:1039800080912D02813249F68091E800877F8093F3
:10399000E8000E94E51E80913002809303020895A2
:1039A00080912D02813A09F0B8CF8091E800877F9D
:1039B0008093E8008091E80080FFFCCF80910302B3
:1039C000C2CF84B7877F84BF0FB6F894A895809143
:1039D0006000886180936000109260000FBE80E8F4
:1039E00090E00FB6F89480936100909361000FBE51
:1039F0000E94C60F0E94351F0E94921F8091E20014
:103A000084608093E20078940E941B220E94CE0F73
:103A100082E191E00E94610F80912C02853019F0C3
:103A20000E94D80FF9CF0E94DC1A80912A028823C5
:103A300099F30E940D1B882379F30E948F1DECCF10
:103A40000C94221D292F33272330310519F168F4F6
:103A50002130310509F44AC02230310509F44BC048
:103A600090E080E030E020E028C02132310579F19B
:103A700022323105A9F780E490E02DEA33E06115A8
:103A80007105D9F08BE390E022E733E061307105F6
:103A9000A1F0E6CF99278130910599F0009741F088
:103AA0008230910589F00397D9F6E3EEF2E002C087
:103AB000E1E2F3E0849190E09F01FA0131832083F9
:103AC0000895E1E0F3E0F6CFE9EEF2E0F3CF89E02C
:103AD00090E027E333E06115710579F389E090E028
:103AE00020E533E06130710541F3BACF82E190E027
:103AF00020E633E0E2CF8BE390E025E233E0DDCF58
:103B000080912C02843011F482E0089581E00895C0
:103B100080910402811102C00C94801D089580E1FF
:103B200089BD82E189BD09B400FEFDCF8091D80036
:103B30008F7D8093D8008091E00082608093E000C8
:103B40008091E00081FDFCCF0895AF92BF92CF92AB
:103B5000DF92FF920F931F93CF93DF936C01EB01E2
:103B60008A010E94041FF82E811123C0011511053E
:103B700039F0F80180819181C81BD90BC80ED91E7C
:103B8000B12CA12C2097A9F08091E80085FD22C0DE
:103B90008091E8008E778093E80001151105A1F06F
:103BA000F80180819181A80EB91EB182A08285E0C2
:103BB000F82E8F2DDF91CF911F910F91FF90DF9005
:103BC000CF90BF90AF9008950E94041F8823D1F238
:103BD000F82EEFCFF60181916F018093F1002197CC
:103BE000FFEFAF1ABF0ACECFFC0180913302909154
:103BF000340286179707A0F06115710529F490919A
:103C0000E8009E779093E80090E06115710551F40B
:103C1000911108C08091E80082FF34C080E00895CF
:103C2000BC01F2CF80912C028823C1F18530C1F113
:103C30008091E80083FD30C08091E80082FDEACFEA
:103C40008091E80080FFE1CF8091F3002091F200A5
:103C5000382F6115710519F02830310558F091E0C1
:103C60002830310509F090E02091E8002E7720936C
:103C7000E800CBCF81918093F100615071092F5FF3
:103C80003F4FE7CF80912C02882341F0853041F0EF
:103C90008091E80083FFBECF81E0089582E008951F
:103CA00083E00895FC0180913302909134028617DD
:103CB0009707A0F06115710529F48091E8008E77CF
:103CC0008093E80090E06115710551F4911108C0EE
:103CD0008091E80082FF35C080E00895BC01F2CFFA
:103CE00080912C028823C9F18530C9F18091E800C8
:103CF00083FD31C08091E80082FDEACF8091E80029
:103D000080FFE1CF8091F3002091F200382F611500
:103D1000710519F02830310558F091E0283031054F
:103D200009F090E08091E8008E778093E800CBCF97
:103D300084918093F1003196615071092F5F3F4F5C
:103D4000E6CF80912C02882341F0853041F08091AC
:103D5000E80083FFBDCF81E0089582E0089583E00D
:103D60000895982F973028F08F708093E90081E0B4
:103D700008959093E900242F762F50E0981731F0A2
:103D80007091EC002091ED005091F00021FD02C0F7
:103D90009F5FE8CF3091EB003E7F3093EB00309196
:103DA000ED003D7F3093ED003091EB0031603093BA
:103DB000EB007093EC002093ED005093F000209105
:103DC000EE0027FDE5CF80E0089580912D0287FF6A
:103DD00013C08091E80082FF06C08091E8008B77D5
:103DE0008093E80004C080912C028111F2CF0895E5
:103DF00080912C028823D9F38091E80080FFF8CFCE
:103E00008091E8008E77ECCF2091E4003091E500BE
:103E100095E6A9012091EC00822F817020FF06C059
:103E20008091E80080FF06C080E008952091E800BE
:103E300022FD1AC080912C02882389F0853089F0F8
:103E40008091EB0085FD0FC02091E4003091E500EA
:103E500042175307F9F29150E1F684E0089582E0A9
:103E6000089583E0089581E008950E94A31F0E94B1
:103E7000AB1FE0EEF0E0808181608083E8EDF0E050
:103E800080818F77808319BCA7EDB0E08C918E7F05
:103E90008C9380818F7E808310922B0208950F93E4
:103EA0001F93CF93DF930E94A31F0E94AB1FC8ED07
:103EB000D0E088818F778883888180688883888133
:103EC0008F7D888319BC10922C02109228021092C8
:103ED0002A021092290200EE10E0F80180818B7F07
:103EE000808388818160888342E060E080E00E9476
:103EF000B11EE1EEF0E080818E7F8083E2EEF0E0A3
:103F0000808181608083808188608083F8018081E6
:103F10008E7F8083888180618883DF91CF911F911C
:103F20000F910895E8EDF0E080818F7E8083E7EDCA
:103F3000F0E080818160808384E082BF81E08093B3
:103F40002B020C944F1FE8EDF0E080818E7F808380
:103F50001092E20008951092DA001092E1000895A4
:103F60001F920F920FB60F9211242F933F934F93EE
:103F70005F936F937F938F939F93AF93BF93EF93D1
:103F8000FF938091E10082FF0BC08091E20082FFED
:103F900007C08091E1008B7F8093E1000E941A228C
:103FA0008091DA0080FF19C08091D80080FF15C091
:103FB0008091DA008E7F8093DA008091D90080FFB3
:103FC00096C080E189BD82E189BD09B400FEFDCFC4
:103FD00081E080932C020E940B1C8091E10080FF05
:103FE00019C08091E20080FF15C08091E2008E7FB1
:103FF0008093E2008091E20080618093E2008091F2
:10400000D80080628093D80019BC85E080932C0290
:104010000E941D1C8091E10084FF2BC08091E20072
:1040200084FF27C080E189BD82E189BD89B5982FD1
:10403000917080FFFBCF8091D8008F7D8093D80056
:104040008091E1008F7E8093E1008091E2008F7E7D
:104050008093E2008091E20081608093E200809191
:104060002802882309F449C084E080932C020E942E
:104070001E1C8091E10083FF29C08091E20083FF34
:1040800025C08091E100877F8093E10082E08093EA
:104090002C02109228028091E1008E7F8093E10033
:1040A0008091E2008E7F8093E2008091E200806147
:1040B0008093E20042E060E080E00E94B11E8091C7
:1040C000F00088608093F0000E941C1CFF91EF912B
:1040D000BF91AF919F918F917F916F915F914F9120
:1040E0003F912F910F900FBE0F901F90189519BC04
:1040F00010922C020E94191C70CF8091E30087FD62
:1041000093E090932C02B3CF1F920F920FB60F92B1
:1041100011242F933F934F935F936F937F938F93CC
:104120009F93AF93BF93CF93DF93EF93FF93D09180
:10413000E900DF708091EC00C82FC17080FDC0E8FD
:104140001092E9008091F000877F8093F0007894CE
:104150000E94C8201092E9008091F000886080934E
:10416000F000CD2BCF70C093E900FF91EF91DF916C
:10417000CF91BF91AF919F918F917F916F915F91FF
:104180004F913F912F910F900FBE0F901F90189558
:104190001F93CF93DF93CDB7DEB7AA970FB6F894EE
:1041A000DEBF0FBECDBF8DE292E02091F100FC0199
:1041B0002193CF01F2E085339F07B9F70E942A1CB3
:1041C0008091E80083FF1EC180912D0290912E0204
:1041D0009A3008F017C1E92FF0E0E95FFC4D0C942C
:1041E0006C22803899F0823809F00CC1809131023C
:1041F0008F70873008F006C18093E9008091EB0052
:1042000085FB882780F91092E90006C08091290279
:1042100090912A02911182609091E800977F90938B
:10422000E8008093F1001092F1008091E8008E7711
:10423000E5C0882309F4D3C0823009F0E3C080913F
:104240002F028111D6C0809131028F702FEF280F7D
:10425000263008F0D7C08093E9002091EB0020FFC2
:10426000C8C0933031F48091EB0080628093EB0002
:10427000C0C09091EB0090619093EB0021E030E0A2
:1042800001C0220F8A95EAF72093EA001092EA0013
:104290008091EB008860EACF8111B4C010912F02A9
:1042A0001F778091E3008078812B8093E3008091D9
:1042B000E800877F8093E8000E94E51E8091E80077
:1042C00080FFFCCF8091E30080688093E30082E070
:1042D000111183E080932C0295C08058823008F041
:1042E00091C080912F02909130028C3D23E0920783
:1042F000A1F583E08A838AE289834FB7F894DE01CF
:10430000139620E03EE051E2E32FF0E05093570097
:10431000E49120FF03C0E295EF703F5FEF708E2FB6
:1043200090E0EA30C0F0C7968D939D932F5F2431C3
:1043300059F74FBF8091E800877F8093E8006AE2D9
:1043400070E0CE0101960E94F41D8091E8008B7709
:104350008093E80057C0C096E7CF6091310270911A
:104360003202AE014F5F5F4F0E94201DBC01892BBE
:1043700009F448C09091E800977F9093E800898104
:104380009A810E94521EE1CF8038E1F58091E800C9
:10439000877F8093E800809128028093F10045CFC9
:1043A000811130C090912F02923060F58091E80029
:1043B000877F8093E800909328020E94E51E8091F9
:1043C0002802882311F084E005C08091E30087FD76
:1043D000FACF81E080932C020E94201C13C08091B0
:1043E0002F02813079F481E0933009F080E08093EE
:1043F0002A021092E9008091E800877F8093E8000C
:104400000E94E51E8091E80083FF0AC08091E800C9
:10441000877F8093E8008091EB0080628093EB00BF
:10442000AA960FB6F894DEBF0FBECDBFDF91CF9135
:104430001F9108950895CF9380912C028823A1F0B5
:10444000C091E900CF709091EC00892F817090FDB0
:1044500080E8C82B1092E9008091E80083FD0E945B
:10446000C820CF70C093E900CF91089587FB082E34
:10447000062687FD819567FD61950E9472220EF4E4
:10448000919507FC81950895AA1BBB1B51E107C0BC
:10449000AA1FBB1FA617B70710F0A61BB70B881FD4
:1044A000991F5A95A9F780959095BC01CD01089563
:1044B00097FB072E16F4009407D077FD09D00E94D1
:1044C000442207FC05D03EF4909581959F4F0895B6
:1044D000709561957F4F0895EE0FFF1F0590F49141
:1044E000E02D0994991B79E004C0991F961708F0F4
:1044F000961B881F7A95C9F780950895FC01415055
:10450000504030F001900616D1F73197CF01089551
:10451000882799270895F999FECF92BD81BDF89A11
:10452000992780B50895A6E1B0E044E050E00C94EE
:10453000C522A8E1B0E042E050E00C94C522262F4D
:10454000F999FECF92BD81BDF89A019700B4021689
:1045500039F01FBA20BD0FB6F894FA9AF99A0FBE37
:1045600008950396272F0E94A0220E949F22252FA4
:104570000E94A022242F0C94A0220196272F0E9493
:10458000A0220C949F22DC01CB01FC01F999FECF03
:1045900006C0F2BDE1BDF89A319600B40D924150CB
:1045A0005040B8F70895F894FFCF0C0C140C1B0C76
:1045B000200C250C2A0C2F0C340C390C3E0C430C0F
:1045C000480C4C0C510C540C570C5A0C5D0C5F0CE5
:1045D000620C41114111991199116E116E116E11F8
:1045E0006E11EB11771286128612E2126E116E11A5
:1045F000EB12561356135F135F1361135F135F13B0
:104600005F135613561366135F135F136613F1207F
:1046100019210222192102224C216D210222C421DA
:02462000D021A7
:10462200010205050501191A1B1C1D1E1F2021224E
:10463200BD01BF1BC41BC21BC31B0A1C01F7F6F53D
:10464200F4909192939431323334353697000102CB
:104652000202020606060909090909090F0F0F0FCE
:104662000F0F1515151819191919191919191919D9
:024672002324FF
:00000001FF
