:100000000C949E020C94E5020C94E5020C94E5021B
:100010000C94E5020C94E5020C94E5020C94E502C4
:100020000C94E5020C94E5020C94E9280C94BD298B
:100030000C948A230C94E5020C94E5020C94E502DE
:100040000C94E5020C94E5020C94E5020C94E50294
:100050000C94E5020C94E1230C94E5020C94E50267
:100060000C94E5020C94E5020C94E5020C94E50274
:100070000C94E5020C94E5020C94E5020C94E50264
:100080000C94E5020C94E5020C94E5020C94E50254
:100090000C94E5020C94E5020C94E5020C94E50244
:1000A0000C94E5020C94E5020C94E5021A0016008B
:1000B000040007001E001F00200021002200230072
:1000C00024002500260004000500060001000100B0
:1000D0000100010001000100010001000100010018
:1000E0000100010001000100010001000100010008
:1000F00001000100010001000100010001000100F8
:1001000001000100010001000100010001000100E7
:1001100001000100010001000100010001000100D7
:1001200001000100010001000100010000000000C9
:10013000000000002A2B2800000000000000000042
:100140000000000000000029000000002C1E3420E8
:10015000212224342627252E362D3738271E1F200E
:100160002122232425263333362E37381F04050653
:100170000708090A0B0C0D0E0F1011121314151697
:100180001718191A1B1C1D2F3130232D3504050695
:100190000708090A0B0C0D0E0F1011121314151677
:1001A0001718191A1B1C1D2F3130354C0000000088
:1001B000000000000000000000000000000000003F
:1001C000000000000000000000000000000000002F
:1001D0007E0F00D4FFFFFFC7000000781E0F050050
:1001E000047F3F1F643214643214783C1E1E140ACC
:1001F000052223252628292A2C2D2F303233353667
:10020000383A3B3D3E4042434547494A4C4E5051A7
:10021000535557595A5C5E6062646668696B6D6FCE
:1002200071737577797B7D7F81838587898A8C8ED1
:1002300090929496989A9C9E9FA1A3A5A7A8AAACD9
:10024000AEAFB1B3B4B6B8B9BBBCBEBFC1C2C3C513
:10025000C6C7C9CACBCCCDCED0D1D2D2D3D4D5D6B5
:10026000D7D7D8D9D9DADADBDBDBDCDCDCDCDCDDE8
:10027000DDDDDDDCDCDCDCDCDBDBDBDADAD9D9D8CC
:10028000D7D7D6D5D4D3D2D2D1D0CECDCCCBCAC964
:10029000C7C6C5C3C2C1BFBEBCBBB9B8B6B4B3B193
:1002A000AFAEACAAA8A7A5A3A19F9E9C9A9896942E
:1002B00092908E8C8A89878583817F7D7B79777503
:1002C00073716F6D6B6968666462605E5C5A5957E2
:1002D000555351504E4C4A4947454342403E3D3BA1
:1002E0003A3836353332302F2D2C2A29282625232B
:1002F00022FFAA7F55400001010101010101010116
:1003000002020202020202020203030303030303C6
:100310000304040404040404050505050506060693
:100320000606070707070708080808090909090A50
:100330000A0A0B0B0B0C0C0C0D0D0D0E0E0E0F0FF5
:100340000F10101111111212131314141515161683
:100350001717181819191A1A1B1B1C1D1D1E1E1FF2
:100360002020212222232424252626272829292A41
:100370002B2C2D2D2E2F3031323233343536373869
:10038000393A3B3C3D3E3F40414243444546474865
:10039000494A4C4D4E4F50515354555658595A5B3B
:1003A0005D5E5F616264656668696B6C6D6F7072DB
:1003B000737577787A7B7D7E8082838587888A8C47
:1003C0008E8F91939596989A9C9EA0A2A3A5A7A97B
:1003D000ABADAFB1B3B5B7BABCBEC0C2C4C6C9CB72
:1003E000CDCFD1D4D6D8DBDDDFE2E4E7E9EBEEF028
:1003F000F3F5F8FAFDFF1603760073006600690056
:1004000067006800740065007200320000001E037F
:100410006C00650061006600630075007400740084
:10042000650072006C00610062007300000004034C
:10043000090409025B00030100A0FA09040000019D
:10044000030101000921110100012240000705817B
:100450000308000109040100020300000009211142
:100460000100012222000705820320000107050385
:10047000032000010904020001030000000921110A
:10048000010001223B000705840320000112011036
:100490000100000008EBCE07000100010200010688
:1004A00060FF0961A1010962150026FF0095207512
:1004B0000881020963150026FF0095207508910246
:1004C000C005010906A1018505050719E029E71501
:1004D0000025019508750181020507190029EF150E
:1004E00000250195F075018102050819012905957E
:1004F0000575019102950175039101C00501090679
:10050000A101050719E029E71500250195087501E6
:1005100081029501750881010507190029FF150061
:1005200026FF009506750881000508190129059523
:100530000575019102950175039101C011241FBE3B
:10054000CFEFDAE0DEBFCDBF04B603FE27C0809157
:100550008C0290918D02A0918E02B0918F02873013
:10056000904BA740B04BD1F410928C0210928D02A8
:1005700010928E0210928F0214BE84B7877F84BFC0
:100580000FB6F894A8958091600088618093600010
:10059000109260000FBEE0E0F8E3099511E0A0E0E2
:1005A000B1E0EAEBFCE502C005900D92AC37B10773
:1005B000D9F722E0ACE7B1E001C01D92AC38B20738
:1005C000E1F70E94A7250C940C2E0C9400000C94CB
:1005D000F4079F92AF92BF92CF92DF92EF92FF9279
:1005E0000F931F93CF93DF935C018B01FB018081FD
:1005F00091810E948720982E609130017091310185
:100600000E94CC13EC0160912E0170912F01892D75
:100610000E94CC136C0160912C0170912D01892DE9
:100620000E94CC137C0160912A0170912B01892DCD
:100630000E94CC13BC0121E030E001C0220F9A944B
:10064000EAF7CA15DB0551F5F801C28190918101E5
:10065000809180018223CC23B9F0292B2093810142
:10066000811102C0C1E003C08C2D0E9402198C2FA1
:10067000DF91CF911F910F91FF90EF90DF90CF907E
:10068000BF90AF909F900895209592239093810101
:10069000882341F38C2D0E94D718E4CFCA14DB04C1
:1006A000A9F480918001909181019223C1E009F029
:1006B000C0E0F8019281992321F0282B209380013A
:1006C000D6CF2095822380938001D1CFEA14FB04FA
:1006D000F9F4F801C28140917F0190917E0192234B
:1006E000CC2359F0242B20937F01862F992309F4E2
:1006F000B9CF0E940219C0E0BACF2095422340939F
:100700007F01862F992309F4ADCF0E94D718AFCF70
:100710008A159B0509F0A6CFF801C28190917E0150
:1007200080917F018223CC2341F0292B20937E01ED
:10073000882309F497CF8E2DDCCF20952923209391
:100740007E01882309F48ECF8E2DDFCFCF93DF93E8
:100750009C013A9521153F4168F5EC01CC27D170F9
:10076000DC01AA27B270AC01442754709C012227F7
:10077000387094FF11C080E1CD2B09F480E0AB2BE1
:1007800009F08062452B09F08064232B09F0806812
:10079000FB01DF91CF91099481E0CD2B09F480E03A
:1007A000AB2B09F08260452B09F08460232B81F389
:1007B0008860EECFDF91CF910895CF93DF93EC0166
:1007C000805E9109089720F065E87BE1209711F49D
:1007D00069E479E1CE010E94A6038C2FDF91CF91CD
:1007E0000C94D718CF93DF93EC010E940219CE012D
:1007F000805E9109089720F06CE87BE1209711F466
:1008000060E579E1CE01DF91CF910C94A603CF93FF
:10081000DF93EC010E94DD03CE01DF91CF910C94B8
:10082000F20381E008950C94E90208950C941504F4
:100830001F93CF93DF9300D000D00F92CDB7DEB7D8
:1008400049835A836B833091C30189819A81311125
:100850001DC06623B9F02223A9F00E948720182F1B
:10086000682F89819A810E94342069817A81812F41
:100870000F900F900F900F900F90DF91CF911F91DD
:100880000C94CC130E946020182FEFCF0E94872079
:1008900069817A81EDCFFC01262F408151816281EF
:1008A000738184810C941804CF93DF93EC0160E092
:1008B0000E944B04BE01DF91CF910C9416048F92DD
:1008C0009F92AF92BF92CF92DF92EF92FF920F93DF
:1008D0001F936B017C0181E090E0A0E0B0E04C014F
:1008E0005D0104C0880C991CAA1CBB1C4A95D2F758
:1008F000B501A4014C015D0104C0880C991CAA1C1F
:10090000BB1C2A95D2F7482959296A297B2904C09A
:10091000880F991FAA1FBB1F0A95D2F78A019B0156
:100920000C211D212E213F2104171507260737070B
:1009300089F48C299D29AE29BF29BC01CD011F91C5
:100940000F91FF90EF90DF90CF90BF90AF909F906E
:100950008F90089580959095A095B0958C219D21BC
:10096000AE21BF21EACF0F93382F262F60910602C8
:10097000709107028091080290910902042F432F81
:100980000E945F040F910C94721F0E941D240E940C
:10099000D621811102C00E947A220E94AC140C94CC
:1009A000E7020C94F60708950E949D1B0E94D30451
:1009B0002FEF84E39CE0215080409040E1F700C09D
:1009C00000000C9405240F931F93CF93DF93EC0149
:1009D00061E00E944B048C01BE010E94D11188236A
:1009E000B9F1BE01C8010E941304882389F1BE0138
:1009F000C8010E943715882359F1BE01C8010E9421
:100A0000C115882329F1BE01C8010E94131688234D
:100A1000F9F0BE01C8010E9436178823C9F0BE0153
:100A2000C8010E94DE10882399F08A81882339F05A
:100A300001158CE5180751F00E3D1C4579F0CE01EB
:100A4000DF91CF911F910F910C9411040E94D40457
:100A500080E0DF91CF911F910F9108950E947A223B
:100A6000F7CFDF92EF92FF920F931F93CF93DF9315
:100A7000E82FF0E0E45DFE4FD490282F26952695D0
:100A8000269530E0F901E453FE4F0491877010E0A1
:100A9000082E02C0159507950A94E2F701701127F8
:100AA000F901E454FE4FE490F12C082E02C0F594B5
:100AB000E7940A94E2F791E0E922FF24F901E45572
:100AC000FE4FC491D0E002C0D595C7958A95E2F754
:100AD000C170DD270115110519F081EE0E94D718AC
:100AE000E114F10419F086EE0E94D7188D2D0E94B2
:100AF0004119EF2819F086EE0E940219012B19F016
:100B000081EE0E940219CD2B51F08CE2DF91CF9142
:100B10001F910F91FF90EF90DF900C944119DF919E
:100B2000CF911F910F91FF90EF90DF900895EF927A
:100B3000FF920F931F93CF93DF93EC01162F0AE0E0
:100B40008881882309F454C0813009F04EC089811E
:100B5000813099F47E0122E0E20EF11C8A810E942C
:100B60004119E7012196812F815050F3EFE9FFE011
:100B70003197F1F700C00000F7CF823041F47E01D9
:100B800082E0E80EF11C8A810E94D718EACF8330F8
:100B900041F47E01E2E0EE0EF11C8A810E9402190E
:100BA000E0CF843011F02196DDCF2A81229690E0AB
:100BB00080E0AE014F5F5F4F2053330B2A30310589
:100BC00048F0019778F2EFE9FFE03197F1F700C0C4
:100BD0000000F7CF089FB001099F700D1124C901D3
:100BE000860F971F2981EA01E4CF0E943105BACF11
:100BF000DF91CF911F910F91FF90EF90089560E0EA
:100C00000C949705982F9F709A50963018F0805D3D
:100C10000C943105895AFCCF08950C940C0681E0A0
:100C200008950C940F06CF93C82F0E940D068C2FA9
:100C3000CF910C94110690E080E008950895FC0196
:100C4000EE0FFF1FE452FE4F859194910895CF93CC
:100C5000DF930E94CC130E941A07EC01811521E555
:100C60009207D0F5811530E5930708F096C08115FD
:100C70009042F8F4C11581E0D807B8F4C03ED10520
:100C800088F4C03CD10508F07BC0C130D10569F0C3
:100C9000209759F0CE010497813A910530F0D0E0C9
:100CA000C0E003C0C83ED105D0F7CE01DF91CF919F
:100CB0000895C11590E4D90708F06CC0CE019F706B
:100CC000C11520E3D20708F45EC0CE019927D3FFF7
:100CD0005EC0EC01D86CE9CF811535E5930700F5CE
:100CE000811544E5940708F08DC0C11583E5D80748
:100CF00008F074C0C11592E5D90708F46AC0CE01A6
:100D00008370992721E030E002C0220F331F8A95BB
:100D1000E2F7C695C69580E2C89FE001112455C050
:100D2000811529E59207A0F4811538E5930708F0AD
:100D30006EC0811546E5940708F0B1CF0E94B10757
:100D4000C82FD0E0DC2FCC27CC27DF71D062ADCF0D
:100D5000C1158AE5D80708F45FC0CE019056811509
:100D6000904208F09CCF8D2F8F710E94B10790E0C8
:100D7000982F882788279F719C012C2BE901E6CFAB
:100D8000CE01805C91090E941F06EC018ECFEC0120
:100D9000D06C8BCFDF70D06A88CFE4E096958795D2
:100DA000EA95E1F783702C2F26952695237040E273
:100DB000249F90011124382B8C2F8370C1E0D0E048
:100DC00002C0CC0FDD1F8A95E2F7C22BD32BDC6863
:100DD0006CCFDC2FCC27C16FD06A67CFCE01837078
:100DE000992721E030E002C0220F331F8A95E2F7F5
:100DF000C695C69590E2C99FE0011124C22BD32B62
:100E0000DA6853CFD82FCC27C46FD06A4ECFD82FF3
:100E1000CC27C06FD06A49CF8C2F8F700E94B1074A
:100E200034E0D695C7953A95E1F7CF709C2FEC0149
:100E3000D0693BCF82389105B1F1B0F4813391058F
:100E400009F475C048F48932910509F469C08A3201
:100E5000910509F473C008958533910509F459C0CB
:100E60008933910501F10895833E9105A9F138F484
:100E7000803E9105F9F0823E910549F10895863E44
:100E80009105A9F1873E9105C9F1843E910519F5B7
:100E900020917A0221FF1FC08091790284FD14C045
:100EA00087EE90E00895209179022370A1F080EE02
:100EB00090E008952091790220FD47C030917A0298
:100EC00030FF09C024FF44C090E080E004C02091BE
:100ED000790222FDF7CF08952091790222FD3BC0CF
:100EE00030917A0230FDE3CF24FFF5CFEDCF209192
:100EF000790223FFF0CF24FDE7CFD2CF20917902F2
:100F000023FD2CC030917A0231FFEECF84EE90E0C9
:100F100008952091790225FFDECF89E290E00895BF
:100F20002091790225FFD7CF85E390E008952091A5
:100F3000790226FFD0CF8AE290E0089520917902CD
:100F400026FFC9CF81E390E0089589E390E00895FA
:100F500083EE90E0089582EE90E0089586EE90E0B2
:100F600008959091790292FF06C0282F28712830A9
:100F7000F9F4877F846093FF06C0282F28712831F9
:100F8000F1F4877E846120917A0220FF06C0382F19
:100F900038713830D9F4877F816021FF06C0282F4F
:100FA00028712831D1F4877E816194FD877E089570
:100FB000282F24712430F9F68B7F8860DCCF282F0E
:100FC0002471243101F78B7E8861DDCF382F317198
:100FD000313019F78E7F8860E0CF282F21712131C1
:100FE00021F78E7E8861E1CF089508950C94F5076E
:100FF000E82FF0E0EE0FFF1FE75AFD4F808191814F
:1010000008950895A2E3B1E041E050E08D918F3F53
:1010100091F0E82FE295EF70F0E061A18F709A01F6
:1010200001C0220F8A95EAF7922F9095962391A3FB
:1010300082A1822B82A381E0A234B80739F71092F3
:1010400058021092570210925A021092590281E0EF
:101050000E9473080C94C504CF93DF93A2E3B1E020
:1010600070E060E050E040E0C1E0D0E02D912F3F23
:10107000B9F0E22FE295EF70F0E080A190E02F70E0
:1010800002C0959587952A95E2F780FD29C0CE018B
:10109000062E02C0880F991F0A94E2F7482B592B9D
:1010A0006F5F7F4F6031710509F780915702909112
:1010B0005802C0E08417950729F0509358024093D6
:1010C0005702C1E02C2F41E069E572E087E592E02C
:1010D0000E943F090E94D1048C2FDF91CF91089587
:1010E00090E080E0DBCFCF93C82F20E1829FC0014A
:1010F00011240E94112C80938701909388019C01F8
:1011000080E04BEF8C1302C0CF910895F90190E17C
:1011100041939150E9F78F5F205F3F4FF3CFCF921C
:10112000DF92FF920F931F93CF93DF93062F1092BE
:1011300086012091870130918801205F3F4F10E0A8
:1011400090E0A62FB0E04BEFF42E5BEFC52ED12C34
:1011500098130AC010938601DF91CF911F910F91D0
:10116000FF90DF90CF900895F901709741914B3F28
:10117000A9F0642F70E00417C0F0AD01461B570BB7
:10118000052E000C660B770B453051056105710586
:1011900090F0AF0141505109EA01F882E217F307DC
:1011A00029F79F5F205F3F4FD3CFA601461B570B08
:1011B0004A0F5B1FE5CF11E0F1CF6F927F928F92C4
:1011C0009F92AF92BF92CF92DF92EF92FF920F93D6
:1011D0001F93CF93DF9310928501C0918701D09127
:1011E0008801509186013B017C0130E090E0882429
:1011F0008394912C941313C05093860130938501EE
:10120000DF91CF911F910F91FF90EF90DF90CF90E2
:10121000BF90AF909F908F907F906F900895D7016F
:101220000D911D917D01F301A081B1810A271B273A
:1012300070E060E06401062E02C0CC0CDD1C0A9454
:10124000E2F75801AC20BD20AB2859F05E01A60E94
:10125000B71EF50180818B3F81F42083AC25BD252D
:1012600051E06F5F7F4F6031710521F76096F301A8
:10127000A193B1933F019F5FBDCF31E0F2CFDF92E9
:10128000EF92FF920F931F93CF93DF93EC018B01AB
:10129000E42ED22E0E94BA236091830170918401C2
:1012A00090938401809383012091820130E0261B7A
:1012B000370B820F931F6BEF70E00E94892BF82E83
:1012C0008093820180918601882321F06F2D8E2DDD
:1012D0000E948F08D11004C080918501882369F095
:1012E0002F2D4E2DB801CE01DF91CF911F910F917F
:1012F000FF90EF90DF900C94DD08DF91CF911F916C
:101300000F91FF90EF90DF900895EF92FF920F936F
:101310001F93CF93DF93EB01E82FD11110C044232B
:1013200021F0F0E0EA50FD4FE4916E2F7E2F8E2FDA
:10133000DF91CF911F910F91FF90EF9008950D2FA6
:1013400010E0282F30E0442329F02A503D4FF901C6
:10135000249130E0F6E0CF9FC0011124EFEFF0E0E0
:10136000BF010E94892BAB018C2F90E0880F991F41
:10137000A5E5A49FB001A59F700D1124861B970BB6
:10138000982F990F980FBF01601B710B629FD001BE
:10139000639FB00D729FB00D11248B2F9D9FB001E4
:1013A0001124672F7727EF01C61BD70BBE01629F61
:1013B000E001639FD00D729FD00D11247F01E91AC7
:1013C000F108E09EB001E19E700DF09E700D1124B9
:1013D000672F7727E61BF70BE29F8001E39F100D35
:1013E000F29F100D1124E12F722F4230510599F018
:1013F00048F44115510569F04130510581F0EB2F5A
:101400008D2F07C04430510569F080F046305105FA
:10141000B1F76E2F8DCFE22F7B2F812FFACFE22FE6
:101420007D2FF7CFEB2F822F712FF3CF7B2F822FC2
:10143000ED2FEFCF41E00C94850908950C941A0A22
:10144000CF93DF93762FE901682F842F0E941E0A25
:10145000798368838A83DF91CF91089580915B02BD
:10146000982F9E7F29F48170826080935B0208959B
:101470008635E8F381708465F8CF88E090E00C94BD
:10148000AD2DCF92DF92EF92FF926B017C010E9413
:101490002E0AB701A60188E090E0FF90EF90DF9060
:1014A000CF900C94CB2D60915B0270915C02809187
:1014B0005D0290915E020C94410AEBE5F2E083E05C
:1014C000808311828FEF8283838314826081718194
:1014D000828193810C94410A80915B0280FF02C05B
:1014E0008695089580E0089590915F02933018F4F6
:1014F0009F5F90935F02882351F060915B0270912F
:101500005C0280915D0290915E020C94410A089504
:1015100081E00C94740A90915F02992319F0915024
:1015200090935F02882351F060915B0270915C029E
:1015300080915D0290915E020C94410A089581E0D1
:101540000C948B0A80915F02089580935F0266235A
:1015500051F060915B0270915C0280915D0290910C
:101560005E020C94410A089560E00C94A50A8091F3
:101570005C02089580915D02089580915E02089555
:1015800070E00C944E1160910E0180915B0280FF1F
:101590000AC080910D0123E0829FC0011124805A6E
:1015A0009D4F0C94C00A80910F019091100123E08F
:1015B000829FF0011124E05AFD4F891750F71182E4
:1015C000108212828F5F3396F8CF90915B0290FF6A
:1015D00014C090910F012091100133E0939FF0010E
:1015E0001124E05AFD4F921710F00C94C30A818326
:1015F000608342839F5F3396F6CF0895CF93DF9346
:1016000000D00F92CDB7DEB790915B0290FF0AC079
:101610009E012F5F3F4F0E94200A4B8169818A8182
:101620000E94E50A0F900F900F90DF91CF910895DF
:10163000CF93DF93EC01EC81F0E0EF50FE4F44914B
:10164000EBE5F2E0628181810E94FE0A8C818F5F6E
:101650008C83DF91CF910895CF93DF93EC01EBE57D
:10166000F2E0438162818C810E94FE0A8C818F5F4F
:101670008C83DF91CF9108950F931F93CF93DF93C6
:1016800000D00F92CDB7DEB78C0180918901811116
:101690000AC09E012F5F3F4F4FEF6FEF0E94200A5D
:1016A0008A8180938901F8016481613069F08091B9
:1016B000890140E0662361F040E0623011F440911E
:1016C000890180E060E004C06091890140E080E031
:1016D0000E94E50AF801848190E0019663E070E0E1
:1016E0000E949D2B84830F900F900F90DF91CF91DC
:1016F0001F910F910895AF92BF92CF92DF92EF9218
:10170000FF920F931F93CF93DF9300D00F92CDB72B
:10171000DEB7182FF62E042FE22E90915B0290FF79
:1017200029C0E92FE695AE2FB0E0AE5BBE4F8C919D
:101730008093AC019E7F923059F59E012F5F3F4F01
:10174000812F0E94200A4B8169818A810E94E50ACB
:1017500010935C02F0925D0200935E02EE2051F065
:1017600060915B0270915C0280915D0290915E02DB
:101770000E94410A0F900F900F90DF91CF911F911F
:101780000F91FF90EF90DF90CF90BF90AF900895B2
:10179000823019F400915E02DBCF863019F410918B
:1017A0005C02D6CF8930D9F3893191F6E9518E2F79
:1017B0008170D82EE695F0E0EF50FD4FA590B490E3
:1017C000C12CBB2460911101C61618F00E94C30AF7
:1017D000BFCF2C2D30E0A29EC001A39E900DB29EE3
:1017E000900D112470E00E94892B812FD11013C01D
:1017F000860F40910F01420F532F511D9A01220F66
:10180000331F240F351F205A3D4F402F6F2D0E944C
:10181000200AC394D7CF861BECCFEBE5F2E0918191
:10182000282F4381628188E0890F0C947B0B81E033
:101830000C940D0CEBE5F2E09181282F438162813D
:1018400088EF890F0C947B0B81E00C941A0CEBE56C
:10185000F2E0628121E1620F08F46FEF282F4381EB
:1018600081810C947B0B81E00C94270CEBE5F2E07A
:10187000628121E1621B08F460E0282F43818181AD
:101880000C947B0B81E00C94360CEBE5F2E0438189
:1018900021E1420F08F44FEF282F628181810C94DF
:1018A0007B0B81E00C94450CEBE5F2E0438121E1F8
:1018B000421B08F440E0282F628181810C947B0B4D
:1018C00081E00C94540C20E00C947B0BEF92FF927F
:1018D0001F93CF93DF93EC0110E0EE24EA94F12CF8
:1018E00060911101161770F00E94C30A9A818C81D1
:1018F00090FF27C08F5F8C83DF91CF911F91FF9066
:10190000EF90089520910F01422F410F5527551F49
:10191000CA019A01220F331F280F391F205A3D4F49
:1019200070E0C7010E949D2B962F8C8140915E0232
:1019300060915D02199F800D11240E94200A1F5F93
:10194000CFCF8150D8CFAF92BF92CF92DF92EF929C
:10195000FF920F931F93CF93DF93FC0182810FEFD0
:1019600080FF01E010E045E0A42E809111011817DE
:10197000C8F00E94C30A80918B01013009F055C064
:10198000811102C080911101815080938B01DF9100
:10199000CF911F910F91FF90EF90DF90CF90BF906C
:1019A000AF900895C0910F01C12ED12CCC0DDD2D2B
:1019B000D11DCE01880F991FC80FD91FC05ADD4F06
:1019C000198218821A8234E0E32EF12CB12C809116
:1019D0008B018B0D86301CF16A2D0E947B2B892F89
:1019E000082E000C990BC816D90691F480915E025E
:1019F0008E9DA0018F9D500D1124559547955595AD
:101A000047959E0160915D0280915C020E94200AD0
:101A1000B00EF1E0EF1AF108D1F61F5FA6CF87FFF5
:101A2000DFCF90911101890FDBCF90E0019660919B
:101A3000110170E00E949D2BA8CF0F931F93CF93AD
:101A4000DF9380910F019091100123E0829FF001BC
:101A50001124E05AFD4F891740F1C0E0D3E06091B6
:101A60001101C61740F10E94C30A20910B01809119
:101A70008A01820F80938A0190910C01920F9093BA
:101A80000C01191654F4082E000C990B4091110109
:101A90004150550B841795071CF0219520930B019D
:101AA000DF91CF911F910F910895118210821282C0
:101AB0008F5F3396D0CF0C2F10E070E0C8010E94EA
:101AC0009D2B20910F01820F482F50E020918A0119
:101AD000022E000C330B02171307BCF020910C01EF
:101AE000022E000C330B201731077CF08D9F9001E4
:101AF0001124205A3D4F40915E0260915D02809119
:101B00005C020E94200ACF5FAACFFA01EE0FFF1FEE
:101B1000E40FF51FE05AFD4F118210821282F3CFBD
:101B20008F929F92AF92BF92CF92DF92EF92FF92ED
:101B30000F931F93CF93DF93EC014C81042F10E0A0
:101B40009801D8010E94E82B9B01AC010E94FE2B5A
:101B50004B015C01E0E2F0E0E01BF10BA5E5B0E039
:101B6000AC019B010E94FE2B6B017C019F01DF01F8
:101B70000E94E02B9B01AC010E94092C9B01AC014F
:101B8000280D391D4A1D5B1DC701B6010E94B12BEE
:101B9000F22E822F90E039E23F1560F143E0249F5E
:101BA0009001112435952795122F109500E085E5B9
:101BB000E82EEF1880911101081758F10E94C30A0E
:101BC0009C8181E0992319F0903219F48FEF809372
:101BD0000A0180910A01890F8C83DF91CF911F91B7
:101BE0000F91FF90EF90DF90CF90BF90AF909F90BC
:101BF0008F90089525E530E0B901681B790B9B01B2
:101C0000220F331F260F371F37FFCCCF2F5F3F4FD9
:101C1000C9CF8E2D01FD8F2D20910F01622F600FF6
:101C20007727771F9B01220F331F260F371F205A5C
:101C30003D4F412F60915D020E94200A0F5FBACF95
:101C40000F931F93CF93DF93EC0110E000E090918E
:101C500011019017110609F06CF40E94C30A8C81DF
:101C600090E00196817099278C83DF91CF911F912D
:101C70000F91089520910F01A801420F511D9A0163
:101C8000220F331F240F351F205A3D4F4C81609186
:101C90005D0280915C0296959017110651F04CF010
:101CA000442349F040915E020E94200A0F5F1F4FBB
:101CB000CECF4423B9F340E0F7CF4F925F926F92BB
:101CC0007F928F929F92AF92BF92CF92DF92EF92CC
:101CD000FF920F931F93CF93DF93FC0162804480A8
:101CE00081E08483E1EFF1E07490E0E7F2E0E491D9
:101CF000812C75E0972EF2E0CF2EDD24D394AA2418
:101D0000AA94B12C55245A94E7190E2F10E0809113
:101D10001101881690F0DF91CF911F910F91FF90E4
:101D2000EF90DF90CF90BF90AF909F908F907F907B
:101D30006F905F904F900C94C30AE82CF12C82E0D6
:101D4000861568F09E9CF0019F9CF00D1124E457CD
:101D5000FE4F80915C02808380915D0281834110FF
:101D600023C09E9CF0019F9CF00D1124E457FE4F70
:101D70001382128220910F01C701820F911D9C01D5
:101D8000220F331F280F391F205A3D4F9E9CF00110
:101D90009F9CF00D1124E457FE4F428161818081A8
:101DA0000E94200A8394B3CF9E9CE0019F9CD00D9B
:101DB0001124C457DE4F8B818823E9F081508B8337
:101DC000859DC00111246C8170E00E94892BFB016C
:101DD000FF27EF50FE4F8491E82FE719E59DC001E2
:101DE0001124B8010E94892B80915E02689FB00186
:101DF00011247A83BFCF0E94882D20915E02269500
:101E000021582C9DA0012D9D500D1124452F5527A3
:101E1000841795070CF0AECF82E0861588F40E94F7
:101E2000882DB5010E949D2B88830E94882D2091CA
:101E30005D022695622F70E00E949D2B280F29835A
:101E40009E9CF0019F9CF00D1124E457FE4F1282DE
:101E500080915E02893C58F088EC9E9CF0019F9C2A
:101E6000F00D1124E457FE4F8483838383CF8431A4
:101E7000A0F784E1F2CFEBE5F2E080818E7F8083F2
:101E800060817181828193810E94410A1092AD012B
:101E90002FEF80E792E0215080409040E1F700C0B2
:101EA00000000C94C30AEBE5F2E080818E7F808312
:101EB0001092AD012FEF80E792E0215080409040DA
:101EC000E1F700C000000C94C30A60915B026695C4
:101ED00070E04BE050E082E191E00E94982D892B68
:101EE00019F481E08093AD010E94BA239093A6017A
:101EF0008093A501089590915B0290FF35C0917089
:101F0000811128C0926090935B02662351F060912A
:101F10005B0270915C0280915D0290915E020E9472
:101F2000410A60915B02669570E04BE050E082E10F
:101F300091E00E94982D892BA1F01092AD0181E0D3
:101F40008093A80140915E0260915D0280915C02E5
:101F50000C94630C8B3210F09465D5CF880F982BBE
:101F6000D2CF0E94650FEBCF0895682F90915B024E
:101F7000969581E0890F8B3208F081E00C947B0FFD
:101F800081E00C94B50F682F90915B0296958FEFCE
:101F9000890F09F48AE20C947B0F81E00C94C30F43
:101FA00061E00C947B0FEBE5F2E08081816080833F
:101FB00086950C94D00F80915B0280FD0C943B0FB2
:101FC0000C94D30F60E00C947B0F8091AB018111D6
:101FD0002EC00E94D621811104C00E947A220E9444
:101FE0005D0A0E943D0A60935B0270935C028093DD
:101FF0005D0290935E026E7F61F40E945D0A0E9412
:102000003D0A60935B0270935C0280935D02909343
:102010005E020E942E0A1092AD0180915B0280FF49
:1020200003C086950E94E20F81E08093AB01089582
:10203000EBE5F2E080818160808386950C94E20F6D
:102040000F931F93CF93DF938091AD01882309F401
:1020500096C08091AC01E0915B02E695E81BE093AD
:10206000A701823091F5F0E0E351FE4FE491CE2FCD
:10207000D0E008E11BE08091A801882361F0109274
:10208000A8010E94BA239093A6018093A501109203
:10209000AA011092A9010E94BA23E091A501F09132
:1020A000A6018E1B9F0B8F3F9F4708F068C0EC0F67
:1020B000FD1FF093A601E093A50185EA91E0F801E8
:1020C000DF91CF911F910F910994863049F4F0E090
:1020D000E651FE4FE491CE2FD0E00CE21BE0CBCFD7
:1020E000893051F4E695F0E0E951FE4FE491CE2FAE
:1020F000D0E006E61CE0BFCF8F3051F4E695F0E06B
:10210000EC51FE4FE491CE2FD0E003EA1CE0B3CFB8
:10211000853149F4F0E0EF51FE4FE491CE2FD0E04D
:102120000DE11DE0A8CFC8E2D0E000E91DE0883154
:1021300009F4A1CF833239F4EFEDF1E0C591D491E8
:102140000CE31BE098CFC4EFD1E000E21EE0843244
:1021500009F491CFC0EDD7E00DE11AE0853209F026
:102160008ACF8E2F63E00E946F2BE92FF0E0E452BC
:10217000FE4FE491CE2FD0E00DE51EE07CCFDF9145
:10218000CF911F910F910895FA01811101C0FB01B8
:102190000994CF93DF93C82FD62F0E946C0A8C1717
:1021A00040F00E946C0A8D1720F4DF91CF910C94BF
:1021B000C00F8C2FDF91CF910C94D00F0F931F93F2
:1021C000CF938C01FB01C281CC2309F465C00E942E
:1021D0001C218272F801E25CFC45E431F10538F41F
:1021E000E25FF14D0C94D32B0E94DB0FC0E08C2FEB
:1021F000CF911F910F9108954DEC5FE060EC7FE06F
:102200000E94C410F3CF40EC5FE06DEC7FE0F8CFAC
:1022100044E25CE067E17CE0F3CF47E15CE064E24C
:102220007CE0EECF42E45CE063E37CE0E9CF43E3B3
:102230005CE062E47CE0E4CF40E65CE061E57CE009
:10224000DFCF41E55CE060E67CE0DACF4FE95AE0C1
:1022500068E87AE0D5CF48E85AE06FE97AE0D0CF75
:1022600081E00E94D00FC2CF65E082E00E94C910D9
:10227000BDCF68E086E0FACF6EE089E0F7CF64E199
:102280008FE0F4CF67E185E1F1CF88E1EACF62E248
:1022900089E1ECCF83E2E5CFC1E0A9CF3F9A48B115
:1022A0004F7758B15068EFB7F8949B01220F331F56
:1022B000260F371F280F391F2817390741F4EFBFA2
:1022C0008FE594E00197F1F700C000000895DC016C
:1022D0006D91CD0178E058B9000000C067FF48B9A2
:1022E000660F000000C000C000C048B900C07A9569
:1022F00091F7E2CF82E290E00E94A52D813289F42D
:1023000083E290E00E94A52D863059F484E290E0AB
:102310000E94A52D91E0823109F090E0892F817013
:10232000089580E0FCCFCF93C82F6FEF811161E259
:1023300082E290E00E94B92D6FEFC11166E083E266
:1023400090E00E94B92D6FEFC11162E184E290E04C
:10235000CF910C94B92D80E00E9493110C94D02160
:10236000089585E290E00E94A52D682F70E090E02E
:1023700080E0089585E290E00C94B92D0E94B011A0
:102380000E947A1181110CC060E070E0CB010E94C4
:10239000BA110E9457130E94301481E00C949311DB
:1023A0000895CF93FB01C281CC2309F19C012251F6
:1023B0003F452031310520F582510E944014C0E094
:1023C0008C2FCF91089581E00E94981F43E062E036
:1023D00081E00E94B304F3CF81E00E94B91F43E083
:1023E00062E081E00E94B304EBCF82E0F6CF80315F
:1023F000FFE59F0789F381319F45B9F3C1E0E0CF45
:102400008031EFE59E07F9F281319F45C9F682E000
:10241000DBCF2FEFFC0120830895CF93DF93EC01F6
:1024200088818138A9F028F4803871F0DF91CF914C
:102430000895823881F08338C9F70E94B70A8983EA
:102440000E94BA0A8A83F2CF0E94BD0A8983EECF26
:102450000E946C0AFBCF0E94A20AF8CFCF93DF93B1
:10246000EC0188818138E1F028F4803869F0DF914F
:10247000CF910895823811F18338C9F70E94BD0ABF
:10248000482F6A81898108C0D9810E94BA0AC82F61
:102490000E94B70A4D2F6C2FDF91CF910C94630CE3
:1024A00089810E94E20F8981811104C0DF91CF915F
:1024B0000C94530FDF91CF910C9418108981DF9108
:1024C000CF910C94B40A1F93CF93DF93EC01162F96
:1024D000DC01ED91CD01E150E33108F0A4C0F0E062
:1024E000EE5DF14D0C94D32B198289E08A83612F24
:1024F000CE01DF91CF911F910C949C248981823071
:1025000069F0833071F08130A9F40E94C6230E94E3
:10251000D92B6A837B838C839D83E9CF0E94B11181
:10252000F6CF80E00E94F8079827892798279B8399
:102530008A83DDCF612FCE010E940912D8CF898115
:102540008230C1F76A817B818C819D810E94D92B69
:102550000E94BA11CCCF4B816A8189810E942913D4
:102560009827892798279D838C83C1CF2C813D8113
:102570003227232732274B816A8189810E944213A7
:10258000B6CF0E945713B3CF0E942E12B0CF0E9435
:102590000D12ADCF0E94530AAACF0E94D91389838E
:1025A000A6CF0E94DB139827892798279A838983CF
:1025B0009ECF6B8170E089819A81AE014C5F5F4F45
:1025C0009827892798270E94DE1391CF6B8170E0AE
:1025D00089819A81AE014C5F5F4F982789279827A0
:1025E0000E94051484CF0E94301481CF0E941613DC
:1025F000D6CF6B8170E089819A81AE014C5F5F4FCD
:102600009827892798270E947E1371CF6B8170E0ED
:1026100089819A81AE014C5F5F4F9827892798275F
:102620000E94A31364CF8FEF888361CF84E0089565
:1026300020E2629FB001112450E0440F551F640F47
:10264000751F20E2829FC0011124860F971F869676
:1026500008950F931F93CF93DF930E9418138C015B
:102660000E94A52DC82FD0E0DC2FCC27C8010196F1
:102670000E94A52D9E01282BC901DF91CF911F91AA
:102680000F9108950F931F93CF93DF93122F032F72
:102690000E941813EC01602F0E94B92D612FCE010A
:1026A0000196DF91CF911F910F910C94B92DEF926C
:1026B000FF920F931F93CF93DF938CEAE82E80E075
:1026C000F82ED0E08701C0E0F801259134914C2F1D
:1026D00060E08D2F0E9442130E5F1F4FCF5FC0310D
:1026E00099F780E2E80EF11CDF5FD43059F7DF91F3
:1026F000CF911F910F91FF90EF900895EF92FF926D
:102700000F931F93CF93DF93EC018A017C01E60EB8
:10271000F71ECE018696CE15DF0539F4DF91CF91F5
:102720001F910F91FF90EF900895C038D10540F4AC
:102730000E94A52DF80180830F5F1F4F2196E9CFDE
:10274000F8011082F9CFCF92DF92EF92FF920F93B0
:102750001F93CF93DF937C016A018C01060F171F33
:10276000EC01CE018696C017D10749F4DF91CF91D5
:102770001F910F91FF90EF90DF90CF900895C03898
:10278000D10540F4FE01EE19FF09EC0DFD1D60813D
:102790000E94B92D2196E5CF462F843038F471116F
:1027A00005C0603118F460E00C94291390E080E0DB
:1027B000089580E108958AE593E00895EF92FF92ED
:1027C0000F931F93CF93DF93EC018A017C01E60EF8
:1027D000F71ECE018A559F4FCE15DF0539F4DF91E4
:1027E000CF911F910F91FF90EF900895CA3523E08C
:1027F000D20740F40E94A52DF80180830F5F1F4F80
:102800002196E7CFF8011082F9CFCF92DF92EF92B5
:10281000FF920F931F93CF93DF937C016A018C018A
:10282000060F171FEC01CE018A559F4FC017D10725
:1028300049F4DF91CF911F910F91FF90EF90DF90BE
:10284000CF900895CA3523E0D20740F4FE01EE1977
:10285000FF09EC0DFD1D60810E94B92D2196E3CF8B
:10286000CF93DF93C6EAD0E060E0CE010E94B92D9D
:102870002196C11584E0D807B9F7DF91CF9108956B
:10288000DF92EF92FF920F931F93CF93DF9300D0CD
:1028900000D0CDB7DEB7F82E8FE08F1540F08FEF68
:1028A00093E00E94A52D06EA10E08823C1F00F9066
:1028B0000F900F900F90DF91CF911F910F91FF908C
:1028C000EF90DF900895011584E0180781F3C801A7
:1028D0000E94A52D811101C0FA940F5F1F4FF110C6
:1028E000F2CF19821A821B821C82DD24D3947801D4
:1028F0008FEFE81AF80AC8010E94A52D89831A8271
:102900008823A9F29FEF980F933078F48A83D982B5
:102910000E5F1F4FC7010E94A52D8B83882339F2BC
:10292000CE0101960E94FF05E2CF8701F9CFCF9338
:10293000DF93EC0197FF0CC0FB018281882341F0FB
:102940000E94C214CE019F770E941C150E94FD14A4
:1029500081E0DF91CF9108958CE090E00E94A52D59
:1029600090E0B0E0A0E080936F0290937002A0939B
:102970007102B0937202089560916F028CE090E052
:102980000C94B92D0E947117869581708093740202
:1029900090916F02913029F4882319F089E30E9405
:1029A00041190E941C21809373020E942F21809163
:1029B0006F02813089F0882359F0823091F08430A1
:1029C000B9F08FE39CE90197F1F700C0000008958A
:1029D00082EE0E94D718F5CF88E193E00E940704A9
:1029E000F0CF82EE0E94D71887E50E944119E9CF07
:1029F00086EE0E94411988E1F8CF80916F02813004
:102A000071F0882341F0823031F0843099F0809168
:102A100073020C942C2182EE0E940219F8CF8CE2F2
:102A20000E94411980917402882389F389E30E94EE
:102A30004119EDCF88E2FBCF0F931F93CF93DF9324
:102A40008C01CCE0D0E0C8010C2E02C09695879591
:102A50000A94E2F78F700E9402062497CC3F8FEF12
:102A6000D80789F7DF91CF911F910F9108950F93A8
:102A70001F93CF93DF93EC018B01FB0182818823AD
:102A800061F00E941C21CE01815E9C45853091053C
:102A900020F480936F020E94BC14B801CE01DF9134
:102AA000CF911F910F910C9497140F931F93CF9375
:102AB000DF93C42FD22FFC0182818823C9F0409379
:102AC000B0010E94BA239093AF018093AE0180E2DF
:102AD0008C0F883008F050C0C77081E001C0880FAB
:102AE000CA95EAF7DF91CF911F910F910C94491984
:102AF0001091B001141335C08091AE019091AF01D7
:102B00000E94D2238C32914060F5C0E2CD0F1D1798
:102B1000B9F080E2810F883040F4177081E001C085
:102B2000880F1A95EAF70E945019C83048F481E0DE
:102B30009D2F977001C0880F9A95EAF70E94491956
:102B4000802F0E944119C830B8F4D77081E001C0CD
:102B5000880FDA95EAF7DF91CF911F910F910C94CE
:102B6000501980E28C0F883038F4C77081E001C0C2
:102B7000880FCA95EAF7EFCFDF91CF911F910F91A0
:102B800008950F939C01CB01233F4CE5340759F185
:102B9000A8F4283DFCE53F0701F1293D4CE5340749
:102BA000D1F1273D3C4591F406E221EE41EE67ED7F
:102BB0007CE50E94551580E00F910895253FFCE5C6
:102BC0003F07E9F0B0F0263F3C45F9F0FC01828177
:102BD000882339F11092B001EFCF07E225EE45EEE0
:102BE00068ED7CE5E6CF06E221EE40EE63EF7CE5A2
:102BF000E0CF07E225EE44EE64EF7CE5DACF06E2B3
:102C000021EE42EE65EF7CE5D4CF07E225EE46EEFD
:102C100066EF7CE5CECF08E221E045EE69ED7CE58C
:102C2000C8CF81E0C9CFCF93DF93EC01FB01828154
:102C3000882309F419C1C230FCE5DF07C0F1C631B1
:102C40009CE5D90730F09E012A5F3C4529303105CB
:102C500070F50E94E92190937A0280937902C03145
:102C6000ECE5DE0709F4CFC008F05BC0C8308CE5A6
:102C7000D80709F4B6C088F5C430ECE5DE0709F4DE
:102C8000A8C0C0F4C2308CE5D80709F49CC080917C
:102C900079028260C330DC4509F498C080917902E2
:102CA00090917A020E94F7210E949D1B80E0DF91A3
:102CB000CF910895809179028061C630ECE5DE07FE
:102CC00009F484C0809179028860C730DC4508F43B
:102CD0007DC080917902806279C0CC308CE5D807C4
:102CE00009F489C070F4809179028C60CA30ECE5F7
:102CF000DE0709F46BC008F478C0809179028E7FFA
:102D000065C0CE308CE5D80709F479C0809179028E
:102D10008B7FCF30DC4508F459C0809179028F7EDB
:102D200055C0CB3FECE5DE0709F457C030F5C331A1
:102D30008CE5D80709F46FC078F4C131ECE5DE0703
:102D400009F465C0C231DC4509F0A8CF0E949D1B83
:102D5000809179028F773AC0C5318CE5D80709F4A4
:102D600062C008F476C080917A028160CA3FDC4577
:102D700009F094CF80937A0291CFCF3FFCE5DF0733
:102D800009F44DC088F480917A028D7FCD3F9CE597
:102D9000D90781F380917A028E7FCE3FDC4550F3D4
:102DA00080917A028360E6CFC130FDE5DF0709F448
:102DB00059C008F444C080E0C230DD4509F06ECF50
:102DC0000E947C226BCF809179028160809379028E
:102DD00065CF809179028460F9CF80917A02826018
:102DE000C9CF809179028064F1CF0E949D1B8091B0
:102DF00079028068EBCF809179028D7FE7CF809157
:102E00007902877FE3CF809179028F7DDFCF809138
:102E100079028F7BDBCF80917902837FD7CF80913E
:102E20007A028C7FA7CF8091790282FB992790F953
:102E300021E0922790FB82F990FB83F9C7CF809124
:102E40007A02982F909591708E7F892B90FB81F953
:102E500091CF0E949D1B90917902892F97FB87F952
:102E60008058B4CF81E0ACCF81E021CFCF93DF9306
:102E7000EB0186319C4511F50E941C219A81992312
:102E800099F08A7A91E009F490E09093B101811170
:102E900009C089E20E94F7200E946B2180E0DF9147
:102EA000CF91089585E3F6CF8091B101811104C0DF
:102EB00089E20E94FE20F0CF85E3FBCF81E0EFCFD7
:102EC0009093B7018093B6010895E091B601F09117
:102ED000B701309721F00190F081E02D099480E056
:102EE0000895E091B601F091B701309711F480E0B8
:102EF00008950190F081E02D09950895E091B601C3
:102F0000F091B701309799F020912901222359F0CF
:102F10002091790227FF07C0DC012C9111962C9398
:102F2000119725E02C930280F381E02D09940895F8
:102F30002091B4013091B5012817390771F09093B1
:102F4000B5018093B401E091B601F091B7013097DB
:102F500021F00680F781E02D099408952091B201B7
:102F60003091B3012817390771F09093B301809322
:102F7000B201E091B601F091B701309721F00084E1
:102F8000F185E02D099408950E94C6236093BF0146
:102F90007093C0018093C1019093C2016093BB0103
:102FA0007093BC018093BD019093BE01089585B7D5
:102FB000806885BF85B7806885BF089508950895A6
:102FC0000C94DE1708950C94E2170E94D7178EEC2C
:102FD00091E20E9416240E94DF170C94E01781E012
:102FE00008950C94EF17089508950E94B1230E944C
:102FF00002080E94BE110E9434240E94E50F0C9426
:10300000E317AF92BF92DF92EF92FF920F931F935D
:10301000CF93DF93CDB7DEB72A970FB6F894DEBF14
:103020000FBECDBF0E94F3170E94F4170E942C0818
:1030300081110E94C41780E00E94F8078C018091E2
:10304000B9019091BA015C01A026B12680179107C1
:1030500009F455C08091330281FD0E940108D12CF2
:10306000EE24E394F12CC5018E219F21892B09F4D4
:1030700040C00E94F1178823A9F0DE821F820E2132
:103080001F2181E0012B09F480E088870E94BA2388
:103090008160782F9A8789874E815F8168858A85CC
:1030A0000E94A0188091B9019091BA01E826F926F2
:1030B000F092BA01E092B9010E9420100E946517B7
:1030C0009091B801891761F10E9465178093B8014A
:1030D0002A960FB6F894DEBF0FBECDBFDF91CF9119
:1030E0001F910F91FF90EF90DF90BF90AF900C94E5
:1030F0001306D394EE0CFF1C80E1D812B4CF8FEFEF
:1031000089838A831B820E94BA238160782F9D83E2
:103110008C8349815A816B818D810E94A018CCCF0C
:103120002A960FB6F894DEBF0FBECDBFDF91CF91C8
:103130001F910F91FF90EF90DF90BF90AF90089597
:10314000DF92EF92FF920F931F93CF93DF93CDB750
:10315000DEB72B970FB6F894DEBF0FBECDBF7A87D0
:103160008B87F42E052F162FE72ED82E61110E9483
:103170003F211E821D827E2DEC82DD824F2D502F3D
:10318000612F8D2D9E812B960FB6F894DEBF0FBE5A
:10319000CDBFDF91CF911F910F91FF90EF90DF9006
:1031A0000C94141EFC01808191810C94C920CF9352
:1031B000C82F882329F18CEF8C0F813AA0F46C2F53
:1031C00080911D0190911E010E949522882329F073
:1031D0008C2F0E94FE200E946B218C2F0E94F720D2
:1031E000CF910C946B2180E28C0F883048F4C7702B
:1031F00081E001C0880FCA95EAF70E941F21F0CF35
:10320000CF910895882329F19CEF980F913A20F4EB
:103210000E94FE200C946B2190E2980F983050F49D
:10322000877091E001C0990F8A95EAF7892F0E9473
:103230002521F0CF9BE5980F933020F490E080E0BB
:103240000C949817885A873120F490E080E00C9411
:10325000AE1708951F93CF93DF93182FEB010E94B1
:10326000D718209731F4812FDF91CF911F910C94C3
:1032700002198FE99FE00197F1F700C00000219744
:10328000F0CF70E060E0893311F460E570E00C94F9
:103290002A19882321F00E941F210C946B21089584
:1032A000882321F00E9425210C946B210895BF9260
:1032B000CF92DF92EF92FF920F931F93CF93DF9302
:1032C0006C01D62FC72FFC010281158112951F704A
:1032D0000E941521E82E8823A1F0E02E002389F01A
:1032E0008C2F807F803429F080E28D0FE12C883094
:1032F00040F082E00E94B6210E94152191E0E82E64
:10330000E926BC2EB2949FE0B922EB2DF0E0EB5CF5
:10331000F14D0C94D32B1C2F1F70C07F11F0129510
:10332000107F0023A9F0112359F080E28D0F88301F
:1033300010F0D11109C0812F0E941F210E946B2122
:103340008D2F0E94D71814C0812F0E943221F6CFF2
:103350008D2F0E940219112359F080E28D0F8830C1
:1033600010F0D1112CC0812F0E9425210E946B21C9
:103370002B2D2850330B2430310520F40E94651783
:103380000E941306EE2009F477C10E94112180FDEE
:1033900073C1F60112820E940B210E94981FC60180
:1033A0000E945D1B0E940B21DF91CF911F910F9115
:1033B000FF90EF90DF90CF90BF900C94B91F812FBA
:1033C0000E943821D3CFFC2FFF70FF2EC07FC03268
:1033D00019F0F29480EFF822DD2369F0D13049F141
:1033E000002391F1112351F1F601858180FFA8CFCF
:1033F0008F70858323C0002381F0111106C00E94C5
:1034000052218F290E944919B3CF1130C1F70E9470
:1034100052218F290E945821ABCF111106C00E9462
:1034200061218F2D0E945019A3CF113009F4A0CF34
:10343000F6CF002329F0163008F09ACF8F2DE2CF77
:10344000153008F095CFEDCF112359F3D93349F456
:10345000FFEF27EE33E0F15020403040E1F700C0AD
:1034600000008D2F0E94021983CF8C2F837009F0EA
:1034700041C001117DCF4D2F429546954770440FB5
:10348000440F0D2F0F7010E030E020E0042E04C038
:10349000000F111F221F331F0A94D2F760E070E063
:1034A000CB01D4FF0FC06FE070E080E090E004C07B
:1034B000660F771F881F991F4A95D2F76095709500
:1034C00080959095C695C695C370602B712B822B05
:1034D000932BC23049F058F4C13019F00E944A1FB2
:1034E00047CF0E94381F44CF0E945C1F41CF0E94EB
:1034F000361F3ECF8695002311F08C2F81708823D4
:1035000009F436CF4D2F429546954770440F440F2E
:103510000D2F0F7010E030E020E0042E04C0000FEB
:10352000111F221F331F0A94D2F760E070E0CB0115
:10353000D4FF0FC06FE070E080E090E004C0660F41
:10354000771F881F991F4A95D2F7609570958095CF
:103550009095C695C695C370602B712B822B932BCB
:10356000C23049F058F4C13019F00E940F2000CF4A
:103570000E94FD1FFDCE0E942120FACE0E94721FE4
:10358000F7CECF70002329F08C2F0E94981F8D2F2B
:1035900039CF8D2F0E9450198C2F0E94B91FE8CE71
:1035A000D23F89F160F4D03FC9F0D13F29F1002327
:1035B00009F442C01111C4CE8C2F8F7121C0D33FAA
:1035C00039F1D43FA1F7002369F1CF718C2F0E940C
:1035D000981F63E08C2F0E94A121CACE002341F0E6
:1035E000153008F0C5CE8C2F8F710E94DC1FC0CE25
:1035F000163008F0BDCEF7CF8C2F8F71002369F203
:103600000E94981FB5CE8C2F8F710023C9F3C5CFB0
:10361000002329F08C2F8F710E94831FA9CE0E9456
:103620007E1FA6CE81E00E94B621123008F4A0CE03
:1036300082E00E94B6219CCE112359F0D93309F0C3
:1036400010CF8FEF97EEE3E081509040E040E1F73C
:1036500006CF8C2F8F71A1CF4C2F4F706D2FC601CD
:103660000E941B060E94AE1E83CE4C2F4F706D2F02
:10367000C6010E941E067CCEDF91CF911F910F9153
:10368000FF90EF90DF90CF90BF9008950F931F931E
:10369000CF93DF93EC01688179818A810E94D320E6
:1036A0008C010E9433200E94351FB801CE01DF91AA
:1036B000CF911F910F910C945719CF93DF93EC0189
:1036C0008B819C81892B29F08881998189238F3F67
:1036D00059F4DF91CF910895CE010E94461BCE018F
:1036E000DF91CF910C945404CE010E94E304811128
:1036F000F3CF0E941521882361F38A81882349F33F
:1037000082E0DF91CF910C94B621882321F00E94B2
:1037100032210C946B210895882321F00E943821D6
:103720000C946B2108950E943F210E944F210C941C
:103730006B210E9405210C94931B0E942F210C9455
:10374000991BE92FE295EF70E250EE3070F4F0E053
:10375000EB5BF14D0C94D32B803F19F020F4883EA5
:1037600020F481E00895843FE1F380E00895883EED
:10377000C0F3813FD1F7F5CF93FB882780F90895F7
:103780000E94C9200C94A11BCF93DF9300D000D0DE
:103790000F92CDB7DEB70F900F900F900F900F9054
:1037A000DF91CF910895CF93DF9300D000D000D068
:1037B000CDB7DEB726960FB6F894DEBF0FBECDBFED
:1037C000DF91CF9108951F93CF93DF93C091C401F0
:1037D00016E08091C5018C1304C0DF91CF911F9139
:1037E0000895D0E01C9FF0011D9FF00D1124EA53B5
:1037F000FE4F4081518162817381848195810E9455
:10380000D31B2196C770E5CF4091F6015091F70187
:103810006091F8017091F9018091FA019091FB019A
:103820000C94D31B1F93CF93DF938091FB01807F78
:10383000A9F48091F801882389F08091C401C09196
:10384000C5016091F6017091F701A091F901B09165
:10385000FA01D62FD72316E0C81304C0DF91CF9109
:103860001F91089590E0109711F0DF3F19F4019631
:103870008770F2CF189F9001199F300D1124F90124
:10388000EA53FE4F41814713F2CF40814613EFCFF9
:1038900042814111ECCF438154814A1B5B0B4C3276
:1038A000514028F78091FB018F7080618093FB016C
:1038B000F901E553FE4F80818F708061808386EF30
:1038C00091E00E945D1BDF91CF911F910C94E31B4F
:1038D000AF92BF92CF92DF92EF92FF920F931F931E
:1038E000CF93DF93CDB7DEB761970FB6F894DEBF05
:1038F0000FBECDBF8C0185E0F801DE011D96019061
:103900000D928A95E1F7F80140815181E28086EFBE
:10391000C82E81E0D82E6091F9017091FA016115ED
:10392000710509F462C19091F6012091F701892F88
:1039300082238F3F09F459C1A380B480F090F8012D
:10394000F501E61BF70BBF01FF2009F4FCC08091D5
:10395000FB01382F307F6C32714008F0B2C031115A
:1039600079C0FE2C251323C0941321C0E1101FC081
:103970008F7080618093FB010E94041CC6010E942D
:103980005D1B8091FB01F80185838F2D61960FB639
:10399000F894DEBF0FBECDBFDF91CF911F910F9185
:1039A000FF90EF90DF90CF90BF90AF900895AB283D
:1039B00029F0842F85238F3F09F033C180E0F82F51
:1039C000F170DF2E80FF3CC08091C4012091C501C1
:1039D00036E0821315C04D875E878D859E850E94D7
:1039E000C920292F22952F702230F0F0243018F5AD
:1039F0009F70F1F0F8019581907FD1F4D12C1EC019
:103A000090E0389FF001399FF00D1124EA53FE4FEA
:103A10006181651306C06081641303C062816E1109
:103A20000FC001968770D5CF9F7011F0882331F3B6
:103A3000805E883018F3C8010E945D1BFD2CA5CF65
:103A4000EE2009F4A2CF8091FB0181608093FB01FD
:103A5000F12C9BCF251306C0941304C0F801EE206F
:103A600009F48DC04D875E878D859E850E94C01BA1
:103A7000882319F1EE2009F18091FB01803270F06A
:103A80002091F6013091F70138872F831986BB8684
:103A9000AA868C87CE0107960E945D1B86E0F801FE
:103AA000A6EFB1E001900D928A95E1F70E94121CF9
:103AB0000E94041CFF24F39468CFC8010E945D1B80
:103AC000F9CF311113C07A2DB98AA88A6E2D898950
:103AD0000E94C41B86EF91E00E945D1B86E0F60108
:103AE00011928A95E9F70E94041CB2CF25130FC0EA
:103AF00094130DC0E1100BC0F8018583C8010E942A
:103B00005D1B86E0F60111928A95E9F73ECF4D875D
:103B10005E878D859E850E94C01B882371F2EE20F2
:103B200061F28091FB01803208F4B8CF2091F60158
:103B30003091F7013A8329831B82BD82AC828E8348
:103B4000CE010196A9CF6C32714008F041C0FE2C25
:103B5000EE2009F4B2CF25132AC0941328C0809117
:103B6000FB0180FD1BC0982F907FC1F0F801858379
:103B7000903F31F0982F907F905F8F70892B8583D5
:103B8000C8010E945D1B86E0F801A6EFB1E001903C
:103B90000D928A95E1F70E94041CF7CE86E0F801A9
:103BA000A6EFB1E001900D928A95E1F7EECE4D8738
:103BB0005E878D859E850E94C01B81116FCF80918D
:103BC000FB0181608093FB01C8010E945D1BDDCE7B
:103BD0007A2DB98AA88A6E2D89890E94C41B86E035
:103BE000F60111928A95E9F7D6CFEE2009F465CF58
:103BF0004D875E878D859E850E94C01BF82E882389
:103C000009F45BCF86E0F801A6EFB1E001900D92D8
:103C10008A95E1F786EF91E00E94D2180E94121C6B
:103C2000BACF81E08E25CBCE1F93CF93DF93CDB754
:103C3000DEB72C970FB6F894DEBF0FBECDBF4F8313
:103C4000588769877A878B879C87CE0107960E9461
:103C5000681C882369F08A859B85892B39F04F8100
:103C60005885842F85238F3F09F071C016E05FC00F
:103C700086E0FE013796DE01119601900D928A953D
:103C8000E1F78A859B85892B89F38F819885892324
:103C90008F3F61F32091C50130E0C9010196877023
:103CA00099274091C4014817190671F40E949D1B81
:103CB0001092C5011092C40186E0E6EFF1E0DF0149
:103CC0001D928A95E9F7D2CF96E0929FD001939FFB
:103CD000B00D1124AA53BE4FFE01319601900D92F2
:103CE0009A95E1F78093C5010E94E31BBFCF819FA6
:103CF000C00111248A539E4F0E94681C8823E9F05A
:103D0000E091C4011E9FF0011124EA53FE4F40814F
:103D1000518162817381848195810E94D31B80913E
:103D2000C40190E00196877099278093C401809127
:103D3000C4019091C5018913DACF2C960FB6F8947F
:103D4000DEBF0FBECDBFDF91CF911F910895698572
:103D50007A858B859C850E94D31B88CFEF92FF923A
:103D60000F931F93CF93DF938C01892B81F0F12C5C
:103D7000EE24E394E8012196F8018491843770F4ED
:103D8000843008F05FC08130B1F08230A1F1DF9162
:103D9000CF911F910F91FF90EF900895853709F40F
:103DA0004CC008F43DC09CE7980F903780F78F77A0
:103DB0000E94021949C00E5F1F4FFE01849190E2DC
:103DC000980F983060F48770FE2D01C0FF0F8A9520
:103DD000EAF78F2F0E9442210E946B2102C00E94AD
:103DE000D7188F2D815030F2EFE9FFE03197F1F7CE
:103DF00000C00000F7CF0E5F1F4FFE01849190E2DC
:103E0000980F983050F48770FE2D01C0FF0F8A95EF
:103E1000EAF78F2F0E944821DFCF0E940219E1CFDD
:103E20000E5F1F4FFE01C491C150D8F28FE99FE091
:103E30000197F1F700C00000F7CF0E5F1F4FFE01A2
:103E4000F490CFCF0E94D7188E01CBCF08950C9459
:103E5000261F0E94271F60930A0270930B02809313
:103E60000C0290930D020C94931B08950C94291F3F
:103E70000F931F9300910A0210910B0220910C02E4
:103E800030910D02602B712B822B932B1F910F9180
:103E90000C94291F0F931F9300910A0210910B029B
:103EA00020910C0230910D02602371238223932311
:103EB0001F910F910C94291F0F931F9300910A02D9
:103EC00010910B0220910C0230910D026027712796
:103ED000822793271F910F910C94291F0C94261F62
:103EE0000C946E1F0E94701F60930602709307026D
:103EF00080930802909309020C94931B60E070E099
:103F0000CB010C94721F0F931F9341E050E060E0CF
:103F100070E08A019B0104C0000F111F221F331F94
:103F20008A95D2F7C901B8011F910F910C94721FA5
:103F30000F931F9341E050E060E070E004C0440F35
:103F4000551F661F771F8A95D2F7809106029091C0
:103F50000702A0910802B09109028A019B01082B77
:103F6000192B2A2B3B2BC901B8011F910F910C94DF
:103F7000721F0F931F9341E050E060E070E004C0B7
:103F8000440F551F661F771F8A95D2F7CB01BA01E0
:103F900060957095809590950091060210910702AA
:103FA0002091080230910902602371238223932318
:103FB0001F910F910C94721F0F931F9341E050E0DB
:103FC00060E070E004C0440F551F661F771F8A959C
:103FD000D2F78091060290910702A0910802B09159
:103FE00009028A019B01082719272A273B27C901B3
:103FF000B8011F910F910C94721F0F931F930091A2
:104000000602109107022091080230910902602BEC
:10401000712B822B932B1F910F910C94721F0F9376
:104020001F9300910602109107022091080230911F
:10403000090260237123822393231F910F910C9413
:10404000721F0F931F930091060210910702209197
:1040500008023091090260277127822793271F9158
:104060000F910C94721F08959295907F890F982F4D
:10407000977041E001C0440F9A95EAF786958695BE
:10408000869595E0899FF0011124E450FE4F30E0C1
:1040900020E070E05191DF011197CB01022E02C0A8
:1040A000969587950A94E2F78170819585278423F8
:1040B00085278C932F5F3F4F2530310559F70895A1
:1040C0009295907F890F982F977086958695869503
:1040D00025E0829FF0011124E450FE4F50E040E0C3
:1040E00080E0219130E0092E02C0369527950A9490
:1040F000E2F721703327042E01C0220F0A94EAF759
:10410000822B4F5F5F4F4530510559F70895BF929D
:10411000CF92DF92EF92FF920F931F93CF93DF9393
:104120008C01C0900602D0900702E0900802F09047
:10413000090280910A0290910B02A0910C02B091A9
:104140000D02C82AD92AEA2AFB2ACFE1D0E0BC2EE8
:10415000D701C6010C2E04C0B695A79597958795F3
:104160000A94D2F780FD0EC0219788F7B12C8B2DD1
:10417000DF91CF911F910F91FF90EF90DF90CF9043
:10418000BF900895B8018C2F0E942706019761F314
:10419000EECFCF93DF93EC010E948720BE01DF9129
:1041A000CF910C9427061F93CF93DF93EB0190914F
:1041B000C301992331F0CB01DF91CF911F910C9472
:1041C000C920882379F0CB010E948720182F682FFF
:1041D000CE010E943420BE01812FDF91CF911F912B
:1041E0000C942706CB010E946020182FF4CF682F73
:1041F00080911D0190911E010C941523682F8091D0
:104200001D0190911E010C94202380911D0190911D
:104210001E010C942B2380910E0285958595859522
:10422000089580910E028770089590910E02977004
:1042300081E009F480E00895809132020895909120
:104240003202892B80933202089580959091320238
:104250009823909332020895809332020895109229
:104260003202089590913102892B80933102089592
:104270008095909131029823909331020895109285
:104280003102089590913002892B80933002089575
:104290008095909130029823909330020895109267
:1042A0003002089580910F02089508950C945521CD
:1042B00090910F02981721F080930F020C945621D1
:1042C000089580910F02882329F010920F0280E058
:1042D0000C9456210895E0911D01F0911E018091EA
:1042E00032028083E0911D01F0911E018081909146
:1042F0003102892B8083E0911D01F0911E018081A4
:1043000090913002892B808390910F02992381F044
:10431000E0911D01F0911E018081892B80838091A5
:104320001D0190911E010E94812281110E94612134
:1043300080911D0190911E010C947E1708950C949C
:104340009E2198E0899F90011124622B60930E02B8
:104350000E94981F80910E028595859585950C94F5
:104360009F2110920E0280E00C949F2190910E02EA
:104370008095892380930E02282F277071F4282FAF
:10438000082E000C330B9217130639F0859585958E
:1043900085950E94B91F0C94B121089580E008957D
:1043A0006FEF7FEF90E080E00C94D72D90E080E0FD
:1043B0000E94B32D21E08B3E9E4F09F020E0822F1A
:1043C000089582E090E00C94A52D83E090E00C9499
:1043D000A52DCF9384E090E00E94A52DC82F81E207
:1043E00090E00E94A52D982F8C2FCF910895CF9308
:1043F000C92F682F84E090E00E94B92D6C2F81E2D4
:1044000090E0CF910C94B92DAB01BC018FE090E00E
:104410000C94CB2DAB01BC0183E190E00C94CB2D2F
:1044200060E070E0CB010C940A2260E070E0CB0108
:104430000E9404220C9410226BEE7EEF90E080E04C
:104440000E94D72D60E082E090E00E94B92D60E0EC
:1044500083E090E00E94B92D10920A0210920B02A4
:1044600010920C0210920D0260E084E090E00E9435
:10447000B92D60E081E290E00E94B92D60E085E016
:1044800090E00E94B92D60E086E090E00E94B92D96
:104490006FEF87E090E00E94B92D40E050E0BA0154
:1044A00088E090E00E94CB2D60E08DE090E00E94DB
:1044B000B92D40E050E0BA0188E190E00E94CB2D98
:1044C00060E087E190E00E94B92D40E050E0BA0141
:1044D0008CE190E00E94CB2D60E080E290E00E94B1
:1044E000B92D40E050E0BA0188E190E00E94CB2D68
:1044F0000C9415220C941C22682F8EE090E00C94F2
:10450000B92DFC01329680912901882321F08091F8
:1045100079029EE187FF96E080E0915008F40895CB
:1045200021912223D1F38F5FF8CF662301F12091EF
:1045300029012223F1F02091790227FF1AC0462F8A
:104540004695469546954E3190F4677021E030E0EF
:1045500002C0220F331F6A95E2F7840F911DFC0100
:10456000828190E02823392381E0232B69F480E0C5
:104570000895FC01329608962191261721F0E8173C
:10458000F907D1F7F4CF81E008959C01FC01329640
:104590009FEF80E04191461751F09F3F19F4411180
:1045A00001C0982F8F5F8630A9F79F3F09F40895C7
:1045B000290F311D97FD3A95F90162830895FC0199
:1045C000329608962191261303C0DF0111971C92A1
:1045D000E817F907B9F70895E62FE695E695E69509
:1045E000EE3168F4E80FF92FF11D677021E030E03B
:1045F00001C0220F6A95EAF78281822B8283089597
:10460000E62FE695E695E695EE3170F4E80FF92F82
:10461000F11D677021E030E001C0220F6A95EAF7D2
:104620002095828128232283089520912901222325
:1046300029F02091790227FD0C94EC220C94C522DC
:1046400020912901222329F02091790227FD0C9441
:1046500000230C94DF22FC013296809129018823EB
:1046600051F08091790287FF06C08EE1DF011D9233
:104670008A95E9F7089586E0F9CF089508950C9496
:104680003E2380917F02843049F10E943F2380E0E5
:104690000E9413061092340288E190E020E40FB6E5
:1046A000F894A895809360000FBE2093600083B7B4
:1046B000817F846083BF83B7816083BF789488954E
:1046C00083B78E7F83BF0FB6F894A8958091600062
:1046D000886180936000109260000FBE0895089575
:1046E0000E943D230E942C080E946F2380E00E94BC
:1046F000F80721E0892B09F420E0822F089508951E
:104700000C947F230E949D1B0E9465170E94130634
:104710000C9480231F921FB61F9211248F939F9396
:10472000AF93BF9380913402811113C080917502C1
:1047300090917602A0917702B09178024196A11DE6
:10474000B11D8093750290937602A0937702B09387
:104750007802BF91AF919F918F911F901FBE1F90C4
:10476000189582E084BD93E095BD9AEF97BD809344
:104770006E0008952FB7F89480917502909176029B
:10478000A0917702B09178022FBF08952FB7F894C7
:104790006091750270917602809177029091780213
:1047A0002FBF08959C014FB7F894809175029091A6
:1047B0007602A0917702B09178024FBF821B930BD3
:1047C000089578941F921FB61F9211248F939F9380
:1047D000AF93BF938091750290917602A09177027A
:1047E000B09178020196A11DB11D8093750290933E
:1047F0007602A0937702B0937802BF91AF919F9118
:104800008F911F901FBE1F90189587E797E7909391
:1048100001088093000888E19AE00FB6F894A89503
:10482000809360000FBE90936000FFCF90937D0156
:1048300080937C0108950C94AB110E942C082FEFFB
:1048400086E791E0215080409040E1F700C00000F1
:104850000E942C0880E00E94F80780FF04C00E949C
:104860001B240C94052408950E94D621811102C0B6
:104870000E947A220E94E121809333020E94E92162
:1048800090937A02809379020E94E521682F70E06C
:1048900090E080E00E94361F60910602709107024E
:1048A00080910802909109020C94701F809155022A
:1048B000089508950895CF93DF93EC018091290125
:1048C0008823B1F18091790287FF32C060E284E0F1
:1048D0008093E9008FEF9091E800815095FD06C02C
:1048E00095ED9A95F1F700008111F5CF8091E800E0
:1048F00085FF1BC08091290170E050E040E08111EC
:1049000004C050E040E068E070E0CE010E948F26D5
:104910008091E8008E778093E80080E2FE01A5E3B5
:10492000B2E001900D928A95E1F7DF91CF91089561
:1049300068E081E0CDCF0895CF93FC01603221F58E
:1049400080917F02843001F5C091E900CF70209101
:10495000EC00922F917020FD90E8C92B82E08093AB
:10496000E9008091E80080FF0CC050E040E060E288
:1049700070E0CF010E948F268091E8008E778093AF
:10498000E800CF70C093E900CF91089580917E0236
:10499000811109C00E946E280E94CB288091E200FC
:1049A00084608093E200089510927E020895089535
:1049B0000895089542E061EC81E00E94EA2742E216
:1049C00061EC84E00E94EA2742E261EC82E00E940E
:1049D000EA2742E260EC83E00C94EA2780918102AE
:1049E000833009F461C030F48130D1F1823009F4B0
:1049F0009DC008958A3009F489C08B3009F46FC0D6
:104A0000893009F050C080918002813209F04BC09A
:104A10008091840290918502009719F0029709F025
:104A200042C08091E800877F8093E8008091E80091
:104A300082FF35C09091F3008091F200029729F433
:104A40008091F1008B7F813021F48091F10080937F
:104A500055028091E8008B778093E8000C941E2823
:104A600080918002813AF9F48091E800877F8093F9
:104A7000E8008091840290918502892B61F460E2C4
:104A800085E392E070E00E942D278091E8008B770B
:104A90008093E800089560E090E080E0F3CF80919B
:104AA0007F028111C3CF089580918002813AD9F7A6
:104AB0008091840290918502892BA9F78091E8006A
:104AC000877F8093E8008091E80080FFFCCF809191
:104AD00029018093F1008091E8008E77BDCF80910D
:104AE0008002813201F78091840290918502892BA6
:104AF000D1F68091E800877F8093E8000E941E280D
:104B000080918202809329010C949D1B80918002E8
:104B1000813249F68091E800877F8093E8000E9407
:104B20001E2880918302809356020895809180020E
:104B3000813A09F0B8CF8091E800877F8093E80040
:104B40008091E80080FFFCCF80915602C2CFCDB7A4
:104B5000DEB7A0970FB6F894DEBF0FBECDBF84B707
:104B6000877F84BF0FB6F894A89580916000886114
:104B700080936000109260000FBE80E890E00FB656
:104B8000F89480936100909361000FBE0E94E51736
:104B90000E946E280E94CB288091E200846080935E
:104BA000E20078940E94542B0E94F5178FE191E067
:104BB0000E94601713E080917F028530C9F00E9447
:104BC000011880917F028430D1F00E94F3170E9477
:104BD000F417F1CF0E94412380917D02882341F098
:104BE0000E947023882321F00E9479260E949D1B39
:104BF00080917F02853071F30E948223E0CF109371
:104C0000E9008091E80082FFE0CF8091E80090E029
:104C100085FF09C050E040E060E270E0CE010196FF
:104C20000E94DE2691E08091E8008B778093E80077
:104C3000992359F260E2CE0101960E946312C5CF1A
:104C40000C942226292F33272330310521F168F4D3
:104C50002130310509F443C02230310509F444C044
:104C600090E080E030E020E026C02132310551F1B3
:104C700022323105A9F76330710590F7FB01EE0F81
:104C8000FF1FE059FE4F2081318163597E4FFB01A8
:104C9000808190E010C099278130910581F00097C4
:104CA00029F00297E9F6E6EFF3E002C0EEE2F4E065
:104CB000849190E09F01FA01318320830895EEE012
:104CC000F4E0F6CF6330710558F6660F771FFB01ED
:104CD000EA58FE4F2081318189E090E0ECCF82E1FB
:104CE00090E02DE834E0E7CF8BE590E022E334E07C
:104CF000E2CF80E189BD82E189BD09B400FEFDCF2C
:104D00008091D8008F7D8093D8008091E0008260F0
:104D10008093E0008091E00081FDFCCF0895AF9288
:104D2000BF92CF92DF92FF920F931F93CF93DF93A7
:104D30006C01EB018A010E943D28F82E811123C0ED
:104D40000115110539F0F80180819181C81BD90B3B
:104D5000C80ED91EB12CA12C2097A9F08091E80093
:104D600085FD22C08091E8008E778093E8000115D0
:104D70001105A1F0F80180819181A80EB91EB182C0
:104D8000A08285E0F82E8F2DDF91CF911F910F919A
:104D9000FF90DF90CF90BF90AF9008950E943D2884
:104DA0008823D1F2F82EEFCFF60181916F01809325
:104DB000F1002197FFEFAF1ABF0ACECFAF92BF929B
:104DC000CF92DF92FF920F931F93CF93DF936C01EB
:104DD000EB018A010E943D28F82E811123C00115A4
:104DE000110539F0F80180819181C81BD90BC80EDB
:104DF000D91EB12CA12C2097A9F08091E80085FD47
:104E000022C08091E8008B778093E800011511059E
:104E1000A1F0F80180819181A80EB91EB182A08213
:104E200085E0F82E8F2DDF91CF911F910F91FF908C
:104E3000DF90CF90BF90AF9008950E943D288823C7
:104E4000D1F2F82EEFCF8091F100F60181936F013E
:104E50002197FFEFAF1ABF0ACECFFC0180918602E7
:104E60009091870286179707A0F06115710529F4C4
:104E70009091E8009E779093E80090E061157105AD
:104E800051F4911108C08091E80082FF34C080E0A5
:104E90000895BC01F2CF80917F028823C1F1853053
:104EA000C1F18091E80083FD30C08091E80082FD6F
:104EB000EACF8091E80080FFE1CF8091F30020915C
:104EC000F200382F6115710519F02830310558F0BE
:104ED00091E02830310509F090E02091E8002E772C
:104EE0002093E800CBCF81918093F100615071094C
:104EF0002F5F3F4FE7CF80917F02882341F08530BD
:104F000041F08091E80083FFBECF81E0089582E008
:104F1000089583E00895FC018091860290918702B4
:104F200086179707A0F06115710529F48091E800B4
:104F30008E778093E80090E06115710551F491112E
:104F400008C08091E80082FF35C080E00895BC0170
:104F5000F2CF80917F028823C9F18530C9F1809119
:104F6000E80083FD31C08091E80082FDEACF8091A6
:104F7000E80080FFE1CF8091F3002091F200382F0C
:104F80006115710519F02830310558F091E028308D
:104F9000310509F090E08091E8008E778093E80079
:104FA000CBCF84918093F1003196615071092F5FCE
:104FB0003F4FE6CF80917F02882341F0853041F05A
:104FC0008091E80083FFBDCF81E0089582E00895DD
:104FD00083E00895982F973028F08F708093E90030
:104FE00081E008959093E900242F762F50E09817E0
:104FF00031F07091EC002091ED005091F00021FD16
:1050000002C09F5FE8CF3091EB003E7F3093EB0012
:105010003091ED003D7F3093ED003091EB00316039
:105020003093EB007093EC002093ED005093F00070
:105030002091EE0027FDE5CF80E008958091800269
:1050400087FF13C08091E80082FF06C08091E800CE
:105050008B778093E80004C080917F028111F2CFAA
:10506000089580917F028823D9F38091E80080FF22
:10507000F8CF8091E8008E77ECCF2091E40030915A
:10508000E50095E6A9012091EC00822F817020FFB8
:1050900006C08091E80080FF06C080E0089520915E
:1050A000E80022FD1AC080917F02882389F08530B4
:1050B00089F08091EB0085FD0FC02091E4003091D4
:1050C000E50042175307F9F29150E1F684E00895A4
:1050D00082E0089583E0089581E008950E94DC282D
:1050E0000E94E428E0EEF0E0808181608083E8EDBA
:1050F000F0E080818F77808319BCA7EDB0E08C91C0
:105100008E7F8C9380818F7E808310927E020895A3
:105110000F931F93CF93DF930E94DC280E94E42813
:10512000C8EDD0E088818F77888388818068888304
:1051300088818F7D888319BC10927F0210927B0238
:1051400010927D0210927C0200EE10E0F801808146
:105150008B7F808388818160888342E060E080E08B
:105160000E94EA27E1EEF0E080818E7F8083E2EE0C
:10517000F0E0808181608083808188608083F80195
:1051800080818E7F8083888180618883DF91CF9149
:105190001F910F910895E8EDF0E080818F7E80836C
:1051A000E7EDF0E080818160808384E082BF81E070
:1051B00080937E020C948828E8EDF0E080818E7F59
:1051C00080831092E20008951092DA001092E100BC
:1051D00008951F920F920FB60F9211242F933F93B1
:1051E0004F935F936F937F938F939F93AF93BF93EF
:1051F000EF93FF938091E10082FF0BC08091E2006A
:1052000082FF07C08091E1008B7F8093E1000E94C4
:10521000532B8091DA0080FF19C08091D80080FF65
:1052200015C08091DA008E7F8093DA008091D900DA
:1052300080FF96C080E189BD82E189BD09B400FE8E
:10524000FDCF81E080937F020E94C6248091E1001F
:1052500080FF19C08091E20080FF15C08091E200BC
:105260008E7F8093E2008091E20080618093E20073
:105270008091D80080628093D80019BC85E080932B
:105280007F020E94D8248091E10084FF2BC080918E
:10529000E20084FF27C080E189BD82E189BD89B534
:1052A000982F917080FFFBCF8091D8008F7D8093E5
:1052B000D8008091E1008F7E8093E1008091E20030
:1052C0008F7E8093E2008091E20081608093E20013
:1052D00080917B02882309F449C084E080937F0297
:1052E0000E94D9248091E10083FF29C08091E200CF
:1052F00083FF25C08091E100877F8093E10082E0F9
:1053000080937F0210927B028091E1008E7F8093D8
:10531000E1008091E2008E7F8093E2008091E200C4
:1053200080618093E20042E060E080E00E94EA2732
:105330008091F00088608093F0000E94D724FF9154
:10534000EF91BF91AF919F918F917F916F915F91FD
:105350004F913F912F910F900FBE0F901F90189576
:1053600019BC10927F020E94D42470CF8091E30078
:1053700087FD93E090937F02B3CF1F920F920FB6F9
:105380000F9211242F933F934F935F936F937F93CB
:105390008F939F93AF93BF93CF93DF93EF93FF933D
:1053A000D091E900DF708091EC00C82FC17080FDC2
:1053B000C0E81092E9008091F000877F8093F000B0
:1053C00078940E94012A1092E9008091F000886090
:1053D0008093F000CD2BCF70C093E900FF91EF9147
:1053E000DF91CF91BF91AF919F918F917F916F91FD
:1053F0005F914F913F912F910F900FBE0F901F9093
:1054000018951F93CF93DF93CDB7DEB7AA970FB64A
:10541000F894DEBF0FBECDBF80E892E02091F1008E
:10542000FC012193CF01F2E088389F07B9F70E9471
:10543000EE248091E80083FF1EC18091800290914C
:1054400081029A3008F017C1E92FF0E0ED5AF14DD2
:105450000C94D32B803899F0823809F00CC18091DC
:1054600084028F70873008F006C18093E900809134
:10547000EB0085FB882780F91092E90006C0809137
:105480007C0290917D02911182609091E800977F5B
:105490009093E8008093F1001092F1008091E80071
:1054A0008E77E5C0882309F4D3C0823009F0E3C0C9
:1054B000809182028111D6C0809184028F702FEF7B
:1054C000280F263008F0D7C08093E9002091EB0028
:1054D00020FFC8C0933031F48091EB00806280934C
:1054E000EB00C0C09091EB0090619093EB0021E045
:1054F00030E001C0220F8A95EAF72093EA0010926B
:10550000EA008091EB008860EACF8111B4C010916D
:1055100082021F778091E3008078812B8093E300E3
:105520008091E800877F8093E8000E941E28809188
:10553000E80080FFFCCF8091E30080688093E30067
:1055400082E0111183E080937F0295C08058823001
:1055500008F091C080918202909183028C3D23E0FB
:105560009207A1F583E08A838AE289834FB7F89492
:10557000DE01139620E03EE051E2E32FF0E050938D
:105580005700E49120FF03C0E295EF703F5FEF709A
:105590008E2F90E0EA30C0F0C7968D939D932F5FD9
:1055A000243159F74FBF8091E800877F8093E8004E
:1055B0006AE270E0CE0101960E942D278091E800FA
:1055C0008B778093E80057C0C096E7CF6091840244
:1055D00070918502AE014F5F5F4F0E942026BC0193
:1055E000892B09F448C09091E800977F9093E800D8
:1055F00089819A810E948B27E1CF8038E1F58091E3
:10560000E800877F8093E80080917B028093F1001F
:1056100045CF811130C090918202923060F5809127
:10562000E800877F8093E80090937B020E941E2809
:1056300080917B02882311F084E005C08091E30013
:1056400087FDFACF81E080937F020E94DA2413C0A5
:1056500080918202813079F481E0933009F080E01A
:1056600080937D021092E9008091E800877F80930B
:10567000E8000E941E288091E80083FF0AC0809104
:10568000E800877F8093E8008091EB008062809340
:10569000EB00AA960FB6F894DEBF0FBECDBFDF9128
:1056A000CF911F9108950895CF9380917F02882311
:1056B000A1F0C091E900CF709091EC00892F81702A
:1056C00090FD80E8C82B1092E9008091E80083FDEE
:1056D0000E94012ACF70C093E900CF910895991BD1
:1056E00079E004C0991F961708F0961B881F7A95D9
:1056F000C9F78095089587FB082E062687FD8195BA
:1057000067FD61950E946F2B0EF4919507FC8195C2
:105710000895AA1BBB1B51E107C0AA1FBB1FA617F8
:10572000B70710F0A61BB70B881F991F5A95A9F74A
:1057300080959095BC01CD01089597FB072E16F436
:10574000009407D077FD09D00E94892B07FC05D073
:105750003EF4909581959F4F0895709561957F4F88
:105760000895A1E21A2EAA1BBB1BFD010DC0AA1FA2
:10577000BB1FEE1FFF1FA217B307E407F50720F0BA
:10578000A21BB30BE40BF50B661F771F881F991F35
:105790001A9469F760957095809590959B01AC017E
:1057A000BD01CF010895EE0FFF1F0590F491E02D8C
:1057B00009946927962769277827872778270895E6
:1057C0000E94E82B332312F48A1B9B0B0C94F92BB9
:1057D000A29FB001B39FC001A39F700D811D112432
:1057E000911DB29F700D811D1124911D08950E947D
:1057F000E82BB7FF0895821B930B08950E94E82BB6
:10580000A59F900DB49F900DA49F800D911D112414
:105810000895B7FF0C94FE2B0E94FE2B821B930B66
:1058200008950F931F93CF93DF938230910510F467
:1058300082E090E0E0918A02F0918B0230E020E07B
:10584000B0E0A0E0309799F42115310509F447C084
:10585000281B390B24303105C0F58A819B816115E5
:10586000710571F1FB0193838283FE0111C04081B8
:1058700051810281138148175907F8F048175907D9
:1058800099F4109761F012960C93129713961C934B
:105890003296CF01DF91CF911F910F910895009320
:1058A0008A0210938B02F4CF2115310519F04217AB
:1058B000530718F49A01BD01EF01DF01F801C2CFCF
:1058C00090938B0280938A02D0CFFE01E20FF31FE8
:1058D000819391932250310939832883DACF209123
:1058E000880230918902232B41F4209102013091EA
:1058F00003013093890220938802209100013091A6
:1059000001012115310541F42DB73EB74091040145
:1059100050910501241B350B40918802509189025A
:105920004217530708F0B5CF241B350B281739074A
:1059300008F4AFCFBC016E5F7F4F2617370708F41E
:10594000A8CF640F751F7093890260938802FA01D3
:10595000819391939ECFCF93DF930097E9F0FC0161
:10596000329713821282C0918A02D0918B02DE019B
:1059700030E020E02097A1F420813181820F931F35
:1059800020918802309189022817390709F067C0F1
:10599000F0938902E0938802DF91CF910895DA01B4
:1059A000AE17BF0708F040C012964D915C91139757
:1059B0009D014115510599F7D9011396FC93EE937A
:1059C00012974D915D91A40FB51FEA17FB0779F46B
:1059D000808191810296840F951FD90111969C9325
:1059E0008E938281938113969C938E931297B0E04D
:1059F000A0E08A819B810097B9F5FE018191919188
:105A0000E80FF91F80918802909189028E179F07F5
:105A100019F6109761F510928B0210928A02D093BA
:105A20008902C0938802B8CFB383A2834081518199
:105A3000840F951FA817B90771F44E5F5F4F8D91C2
:105A40009C911197480F591F5183408312968D9155
:105A50009C91938382832115310509F0ADCFF0939A
:105A60008B02E0938A0298CFDE01EC01C2CF13963D
:105A70001C921E921297D3CF8F929F92AF92BF9299
:105A8000CF92DF92EF92FF92CF93DF93EC01688188
:105A900079818A819B81611571058105910521F4C8
:105AA00064E279ED8BE597E02DE133EF41E050E0E2
:105AB0000E94ED2D49015A019B01AC01A7EAB1E416
:105AC0000E94FE2B6B017C01ACEEB4EFA5019401AA
:105AD0000E940C2CDC01CB018C0D9D1DAE1DBF1D49
