:100000000C94DB000C9403010C9403010C94030189
:100010000C9403010C9403010C9403010C94030150
:100020000C9403010C9403010C94DE070C944D080E
:100030000C9403010C9403010C9403010C94030130
:100040000C9403010C9403010C9403010C94030120
:100050000C9403010C9403010C9403010C947F0A8B
:100060000C9403010C9403010C9403010C94030100
:100070000C9403010C9403010C9403010C940301F0
:100080000C9403010C9403010C9403010C940301E0
:100090000C9403010C9403010C9403010C940301D0
:1000A0000C9403010C9403010C940301070605044E
:1000B0000100080A0B0C0D090000000023002600B7
:1000C00029002C002F000000000200090F0000038F
:1000D0000401000C0000000000000000000000000F
:1000E0000000000000080B000202020000090400EA
:1000F0000001020200000524001001052401010195
:1001000004240206052406000107058103100040AF
:1001100009040100020A0000000705020240000075
:10012000070583024000000403090412010002EFE6
:100130000201404123368000010102030141726443
:1001400075696E6F204C4C430041726475696E6F27
:10015000204C656F6E6172646F0000000000250026
:1001600028002B002E003100000000002400270092
:100170002A002D00300004040404040304050202D4
:100180000202040302020202060606060606040430
:1001900002020204040408020110408040102040C2
:1001A000804080080204018040201002011080106D
:1001B00020404020C90A11241FBECFEFDAE0DEBF85
:1001C000CDBF11E0A0E0B1E0E2ECF0E202C00590AA
:1001D0000D92A833B107D9F722E0A8E3B1E001C03E
:1001E0001D92A633B207E1F710E0CBEDD0E004C0DA
:1001F0002197FE010E94170FCA3DD107C9F70E943F
:10020000680C0C945F100C940000CF92DF92EF9278
:10021000FF920F931F93CF93DF93D901E8016A01F7
:10022000F9014217530714F06901FA01882309F410
:1002300040C0CB016C157D050CF4C6019F018E17E3
:100240009F070CF49C01A417B50734F4CF01821B5F
:10025000930B9C012C0D3D1D0D2C000CEE08FF088E
:10026000032E000C440B550B2C193D094E095F0958
:10027000AEEFBFEF0E94C70E9F01FF0F440B550B5F
:100280002C193D094E095F090E94A80EDA01C90127
:100290008F5F9F47A109B1098883998382E090E02D
:1002A000DF91CF911F910F91FF90EF90DF90CF9052
:1002B000089590E080E0F4CFCF93DF9390E0FC01CD
:1002C000EB56FE4F24918A589E4FFC01849188235F
:1002D000C1F090E0880F991FFC01E859FE4FC591CD
:1002E000D491FC01E65AFE4FA591B4919FB7F894C2
:1002F0003881822F809583238883EC91E22BEC93C5
:100300009FBFDF91CF910895FC01809191018823D7
:1003100011F13FB7F89482E08093E9002091F20058
:10032000822F90E01816190614F481E090E08823DB
:1003300039F0289844E6409390014091F1004083C1
:10034000222339F02091F200211103C02BE62093E3
:10035000E8003FBF08958FEF9FEF08954091680137
:10036000509169012091660130916701421753074E
:10037000B4F49091E8009570E1F39091E80092FD5B
:1003800019C08093F10080916801909169010196F4
:100390008F739927892B19F48EEF8093E800809151
:1003A00068019091690101969093690180936801B9
:1003B00081E0089580E00895EF92FF920F931F93DC
:1003C000CF93DF93F82E192FE62E042F81E0860FAE
:1003D000880F0E94AE0183E00E94AE01CF2DD12F85
:1003E000EC0EFD2EF11CCE15DF05B9F007FF13C092
:1003F000FE0184910E94AE01182F80E00E94AE01A0
:10040000812321968111EFCFDF91CF911F910F9121
:10041000FF90EF9008958881EDCF81E0F5CFDF92D6
:10042000EF92FF920F931F93CF93DF93D82E8A0101
:10043000EB017B01E40EF51ECE15DF0559F0D7FE6A
:1004400012C0FE0184910E94AE0121968111F4CF69
:100450000FEF1FEFC801DF91CF911F910F91FF9018
:10046000EF90DF9008958881EECF2FB7F8948770D2
:100470008093E9009091E800892F807295FF04C075
:100480009091F20080E4891B2FBF0895615030F0F5
:100490002091F100FC0120830196F8CF289884E692
:1004A00080939001089580915E0181110DC082E0DA
:1004B00080935A0184E080935B0110925D01109259
:1004C0005C0181E080935E018AE591E008950F93DD
:1004D0001F93CF93DF931F92CDB7DEB782E089835E
:1004E00042E450E065EE70E080E80E940F020E9456
:1004F0005302DC0112960D911C910115110589F032
:10050000D801ED91FC910280F381E02DBE016F5F77
:100510007F4FC801099597FD04C0F801008511853A
:10052000ECCF89810F90DF91CF911F910F910895AA
:10053000CF93DF931F92CDB7DEB76983DC01ED91D6
:10054000FC910280F381E02D41E050E0BE016F5F3D
:100550007F4F09950F90DF91CF91089583E08093AD
:10056000E9008091F200882319F08AE38093E80083
:10057000089583E00E94350290E00895CF93DF93C1
:100580001F92CDB7DEB7FC018485958597FD08C025
:100590002FEF3FEF358724870F90DF91CF9108959C
:1005A000CE0101960E948401019719F4898190E09F
:1005B000F3CF8FEF9FEFF0CF0F931F93CF93DF9386
:1005C0001F92CDB7DEB78C01FC018485958597FF1E
:1005D0000BC0CE0101960E948401019771F48981BC
:1005E00090E0F80195878487F801848595850F90C0
:1005F000DF91CF911F910F9108958FEF9FEFF1CF72
:10060000FC018485958597FD0BC09FB7F89482E027
:100610008093E9008091F2009FBF90E001960895D9
:100620009FB7F89482E08093E9008091F2009FBF29
:1006300090E00895282F30E0F901EA53FF4F94919C
:10064000F901EB56FE4F84912A583E4FF90124914F
:10065000222309F45BC09923E9F091509F30D0F434
:10066000E92FF0E0EA5CFC4F0C94170F610365037F
:10067000450359035D034A034A034A0368036E03B3
:10068000720376037C034A038003909180009F7776
:1006900090938000E22FF0E0EE0FFF1FE854FF4F31
:1006A000A591B491EC91E82381E090E089F580E098
:1006B0000895909180009F7DEBCF90918000977F6F
:1006C000E7CF94B59F7794BDE5CF94B59F7DFBCFE1
:1006D000909190009F7790939000DCCF9091900044
:1006E0009F7DF9CF90919000977FF5CF9091C000BA
:1006F0009F779093C000CECF9091C0009F7DF9CF9F
:100700009091C200977F9093C200C4CF80E090E0A8
:1007100008958251E82FF0E0E455FF4FE491909165
:100720007B008E2F880F880F80729F7D892B80938E
:100730007B00E770E064E0937C0080917A00806445
:1007400080937A0080917A0086FDFCCF80917800BA
:100750009091790008953FB7F89480915601909157
:100760005701A0915801B091590126B5A89B05C029
:100770002F3F19F00196A11DB11D3FBFBA2FA92F20
:10078000982F8827BC01CD01620F711D811D911D1D
:1007900042E0660F771F881F991F4A95D1F7089589
:1007A0008F929F92AF92BF92CF92DF92EF92FF9281
:1007B0004B015C010E94AB036B017C010E94AB0307
:1007C0006C197D098E099F09683E7340810591056A
:1007D000A8F321E0821A9108A108B10888EEC80E9A
:1007E00083E0D81EE11CF11C81149104A104B10422
:1007F00029F7FF90EF90DF90CF90BF90AF909F9040
:100800008F9008957F928F929F92AF92BF92CF92D6
:10081000DF92EF92FF920F931F93CF93DF93C82E37
:100820008B017A0180919101811110C08FEF9FEFB0
:10083000DF91CF911F910F91FF90EF90DF90CF90BC
:10084000BF90AF909F908F907F90089580916C01A2
:1008500080FF05C08091E00082608093E000CE2D93
:10086000DF2DD12C8AEFB82E8C2D8770982E8C2DF1
:100870008072882E8C2D8074782E9AE3A92E209772
:1008800019F4DD2009F452C08C2D0E94350281112B
:100890000AC0BA94BB2051F261E070E080E090E0C1
:1008A0000E94D003ECCF8C171D0611F00CF08C2F9A
:1008B0009FB7F8949092E9002091E80025FD02C0CE
:1008C0009FBFDDCF282F30E0C21BD30B882029F03B
:1008D0008150A0F01092F100FBCFF801C7FC0AC0D4
:1008E000815050F041914093F100FACF44914093F0
:1008F000F10031968150D0F7020F131FDD2021F057
:10090000A092E800D12CDCCF8091E80085FD07C0E3
:10091000A092E800DD24D394209791F2F3CF2097A2
:1009200079F6772069F2A092E800CACF5D9884E654
:1009300080936B01C7017CCFCF93DF93EC01809153
:100940001201882331F083E00E9402041816190670
:1009500034F081E090E09B838A8380E090E0DF9137
:10096000CF910895DC01FB0112962C91129784819E
:1009700095812817190641F491818081813A31F4DB
:100980009D7F81E0913009F080E008958132E1F7A8
:100990009B3029F482811F968C9381E008959A30D0
:1009A00099F7828150968C93F8CFDC01FB0188E4A3
:1009B000808389E4818384E482831D969C911D97C2
:1009C0009F709F5B93831D968D919C9124E09695DB
:1009D00087952A95E1F78F708F5B848385E0089572
:1009E000EF92FF920F931F93CF93DF93FB01208130
:1009F000213889F52381223271F5DC0112964C9160
:100A0000248135814217130631F58C01FC01C38521
:100A1000D485F12CE12C209791F04C815D816A8185
:100A20007B818E81811180E80E940F028F3F9807A1
:100A300059F0E80EF91E0990D881C02DECCF81E065
:100A4000D8011F968C93C701DF91CF911F910F9111
:100A5000FF90EF90089590E080E0F6CFCF93DF9382
:100A6000CDB7DEB769970FB6F894DEBF0FBECDBF26
:100A7000FC01DB018C918F5F8C939E012D5F3F4FBA
:100A80008DE0D9011D928A95E9F729E0298384E058
:100A90008A8391E09D8383E08E832A8721E22B87DE
:100AA0009C879D879F8722E2288B27E02B8B25E060
:100AB0002C8B8E8B20E430E0388F2F8B998F8281A6
:100AC0008B8395858685998B8A8B838180688D8BB6
:100AD00049E150E0BE016F5F7F4F80E00E940F024E
:100AE00069960FB6F894DEBF0FBECDBFDF91CF91F0
:100AF0000895CF93DF9380914901811167C081E010
:100B000080933C0180933D0122E431E030933F012A
:100B100020933E0110924101109240012DE131E0FD
:100B2000309339012093380110924401109243010F
:100B3000109246011092450180934701809348012D
:100B400081EC809342010E945302FC0181819091CB
:100B50003C01482F490F5527551F483051059CF53A
:100B6000A281B381109709F528E331E03383228312
:100B7000208120933A0180933B0180913D01820FB7
:100B8000808320913E01A22FB0913F018A2F821BCA
:100B90008917C8F481813D91C82FD0E0C050DF4F44
:100BA00038838F5F8183F2CFD90118962D913C91C4
:100BB000199721153105C1F728E331E019963C93C7
:100BC0002E931897D5CF81E08093490188E391E077
:100BD000DF91CF9108958F929F92AF92BF92CF9263
:100BE000DF92EF92FF920F931F93CF93DF93CDB7D6
:100BF000DEB7ADB6BEB6809131022DB73EB7281B29
:100C000031090FB6F8943EBF0FBE2DBF8DB79EB70A
:100C100001966C01E0900002F12C8091FC01909112
:100C2000FD01D601FC019F01281B390B2E153F0544
:100C30001CF421912D93F7CF80910102882359F163
:100C40008091F8019091F90128E097FD09C068E6CC
:100C500071E00E94030F6DE270E00E94030F262FE7
:100C60008091FA019091FB0168E097FD08C068E669
:100C700071E00E94030F6DE270E00E94030FF60125
:100C8000EE0DFF1D90E1699FB0011124262B2083FA
:100C9000F70131967F0186010E0D1F1D209106027E
:100CA0003091070240910402509105026091E201E7
:100CB0007091E3018091020281700E940501E80EAB
:100CC000F91E86010E0D1F1D20910A0230910B02A4
:100CD00040910802509109026091E4017091E50190
:100CE00080910202869581700E940501E80EF91E2E
:100CF00086010E0D1F1D20910E0230910F024091B2
:100D00000C0250910D026091E6017091E701809113
:100D1000020282FB882780F90E940501E80EF91E75
:100D200086010E0D1F1D2091120230911302409179
:100D30001002509111026091E8017091E9018091D7
:100D4000020283FB882780F90E940501E80EF91E44
:100D500086010E0D1F1D2091160230911702409141
:100D60001402509115026091EA017091EB0180919B
:100D70000202829581700E940501E80EF91E86012B
:100D80000E0D1F1D20911A0230911B024091180276
:100D9000509119026091EC017091ED018091020275
:100DA00085FB882780F90E940501E80EF91E86015F
:100DB0000E0D1F1D20911E0230911F0240911C023A
:100DC00050911D026091F0017091F1018091030238
:100DD00081700E940501E80EF91E86010E0D1F1D8F
:100DE0002091220230912302409120025091210251
:100DF0006091EE017091EF01809103028695817000
:100E00000E940501E80EF91E86010E0D1F1D20919E
:100E100026023091270240912402509125026091D0
:100E2000F2017091F3018091030282FB882780F91F
:100E30000E940501E80EF91E86010E0D1F1D20916E
:100E40002A0230912B024091280250912902609190
:100E5000F4017091F5018091030283FB882780F9EA
:100E60000E9405018E0D9F1D8601080F191F2091FC
:100E70002E0230912F0240912C0250912D02609150
:100E8000F6017091F70180910302829581700E94B2
:100E900005010E9479054C01409131028091300298
:100EA00050E07A01FFEFEF1AFF0A2DB73EB72E1977
:100EB0003F090FB6F8943EBF0FBE2DBF0DB71EB74A
:100EC0000F5F1F4FEDB7FEB78183B601C8010196D2
:100ED0000E945610F4018381A701B80180640E942A
:100EE00002040FB6F894BEBE0FBEADBEDF91CF9127
:100EF0001F910F91FF90EF90DF90CF90BF90AF9038
:100F00009F908F9008959091FF01611125C08917DE
:100F100008F03FC0E82FE695E695E6952091FC01A4
:100F20003091FD01E20FF32FF11D282F277081E092
:100F300090E0A0E0B0E004C0880F991FAA1FBB1F7B
:100F40002A95D2F780959081892380838091FE0134
:100F50008823F9F00C94EB058917D8F4E82FE6956F
:100F6000E695E6952091FC013091FD01E20FF32F0B
:100F7000F11D282F277081E090E0A0E0B0E004C0D0
:100F8000880F991FAA1FBB1F2A95D2F72081822B99
:100F9000DCCF08959093E3018093E2018091FE01FC
:100FA00081110C94EB0508959093E5018093E40181
:100FB0008091FE0181110C94EB0508951F920F9210
:100FC0000FB60F9211248F939F938091E10090911F
:100FD000E100937F9093E10083FF0FC01092E9003E
:100FE00091E09093EB001092EC0092E39093ED006F
:100FF0001092910198E09093F00082FF22C093E05C
:101000009093E9009091F200992319F09AE390935C
:10101000E80090916B01992341F090916B01915000
:1010200090936B01911101C05D9A90919001992369
:1010300041F090919001915090939001911101C0D5
:10104000289A84FF18C08091E2008E7E8160809390
:10105000E2008091E1008F7E8093E10080916C013D
:101060008E7E806180936C019F918F910F900FBE57
:101070000F901F90189580FFF7CF8091E2008E7E31
:1010800080618093E2008091E1008E7E8093E10098
:1010900080916C018E7E8160E5CF1F920F920FB61A
:1010A0000F921124CF92DF92EF92FF920F931F9332
:1010B0002F933F934F935F936F937F938F939F9360
:1010C000AF93BF93EF93FF93CF93DF93CDB7DEB78B
:1010D0006C97DEBFCDBF1092E9008091E80083FFDE
:1010E00025C068E0CE0145960E94460282EF8093BB
:1010F000E8008D8987FF39C09091E80090FFFCCF10
:10110000982F907609F034C19E894F89588D2F8988
:10111000F88C911131C0803861F580916D01809318
:10112000F1001092F1008EEF8093E8006C960FB6FC
:10113000F894DEBF0FBECDBFDF91CF91FF91EF914D
:10114000BF91AF919F918F917F916F915F914F91DF
:101150003F912F911F910F91FF90EF90DF90CF90D3
:101160000F900FBE0F901F9018959EEF9093E80080
:10117000C7CF1092F100D5CF913059F48111D3CF60
:101180004130510581F680916D018D7F80936D0115
:10119000CACF933049F48111C6CF4130510519F6B9
:1011A00080916D018260F2CF953041F48091E8002A
:1011B00080FFFCCF20682093E300B5CF963009F084
:1011C000A9C00B8D1C8D22E01092E90010926901DC
:1011D00010926801F2122EC01092670110926601FF
:1011E0000E9467021F8299E09983FA8291E09E83B0
:1011F00090EA98879AEF9987209168013091690168
:10120000275F3F4F3C832B838D831092E900109220
:10121000690110926801109367010093660149E02B
:1012200050E0BE016F5F7F4F80E00E940F020E947E
:10123000670279CF10936701009366010E94530201
:10124000DC0112960D911C910115110509F451C193
:10125000D801ED91FC910480F581E02DBE016B5E1B
:101260007F4FC8010995009709F03EC1F80100853C
:101270001185EACFF3E0FF120EC08F89882309F4AD
:1012800040C0823061F440E860E189E491E00E946E
:10129000DC01811148CF81E28093EB0047CF8130A0
:1012A00029F440E86BE08DE391E0F1CF833099F7CA
:1012B0000E945302DC011296ED90FC908E010F5FAC
:1012C0001F4F6801E114F10479F0D701ED91FC9111
:1012D0000680F781E02DB801C7010995080F111D9F
:1012E000F701E084F184EECFD8011C92F601019061
:1012F0000020E9F73197BF016C197D0940E0C60174
:10130000C6CF67E271E0FB01449150E080E80E94A3
:101310000F0209CF973009F4BECF983021F481E055
:101320008093F10000CF993009F0FDCE837009F071
:10133000B2CFE1E0F1E081E031E096E321912223B8
:1013400071F08093E9003093EB00DF0111972C914D
:101350002093EC009093ED008F5F873079F78EE754
:101360008093EA001092EA008F8980939101DBCE8E
:101370008B8D9C8D1092E90010926901109268018A
:101380009093670180936601898D811192C08E8947
:101390009D89913A49F4813209F07DCF47E050E0D0
:1013A0006BE071E080E0B3CF913209F074CF83320B
:1013B00069F48F89988DB0E0A0E080930701909345
:1013C0000801A0930901B0930A01ADCE803269F4FF
:1013D0008091E80082FFFCCF67E08BE091E00E9403
:1013E00046028BEF8093E8009ECE823209F09BCEBE
:1013F0008F8980931201EEEFFFE7859194918B3FE7
:101400009C4D51F1E0E0F8E080910B0190910C01CE
:10141000A0910D01B0910E01803B9440A105B10552
:10142000F1F48091120180FD1AC0EE3F8AE0F807C6
:1014300089F587E797E791838083809160008093A7
:101440006A0188E19BE00FB6F894A895809360004C
:101450000FBE9093600067CEEEEFFAE0D5CF8081AB
:1014600091818737974709F05ECEA89580916000FB
:1014700088618093600080916A0180936000EE3FF4
:101480002AE0F20789F08091FE0A9091FF0A918389
:10149000808349CE808191818737980751F290935C
:1014A000FF0A8093FE0AC5CF1092FF0A1092FE0A2F
:1014B0003ACE0E945302DC0112960D911C91011547
:1014C000110509F4E8CED801ED91FC910190F0816D
:1014D000E02DBE016B5E7F4FC8010995811123CEBF
:1014E000F80100851185EBCF181619060CF41BCEF8
:1014F000D2CEF1E0FF12BECE6BE271E004CF1F92BC
:101500000F920FB60F9211242F933F938F939F93B7
:10151000AF93BF938091520190915301A0915401D8
:10152000B09155013091510123E0230F2D3758F52B
:101530000196A11DB11D20935101809352019093FA
:101540005301A0935401B09355018091560190919D
:101550005701A0915801B09159010196A11DB11DEB
:101560008093560190935701A0935801B09359016D
:10157000BF91AF919F918F913F912F910F900FBE8F
:101580000F901F90189526E8230F0296A11DB11DFC
:10159000D2CFEF92FF920F931F93CF93DF93CDB7EC
:1015A000DEB7C659D1090FB6F894DEBF0FBECDBF66
:1015B000109295011092940188EE93E0A0E0B0E0C3
:1015C0008093960190939701A0939801B09399010D
:1015D00089E291E090939301809392018FEF9FEFC6
:1015E00090939F0180939E011092FD011092FC0147
:1015F0001092000210920502109204028FEF93E005
:10160000909307028093060210920902109208023A
:1016100090930B0280930A0210920D0210920C021A
:1016200090930F0280930E021092110210921002FA
:1016300090931302809312021092150210921402DA
:1016400090931702809316021092190210921802BA
:1016500090931B0280931A0210921D0210921C029A
:1016600090931F0280931E0210922102109220027A
:10167000909323028093220210922502109224025A
:10168000909327028093260210922902109228023A
:1016900090932B0280932A0210922D0210922C021A
:1016A00090932F0280932E0233E0309330024CE06F
:1016B0004093FF0110920102309302021092030244
:1016C00025E0298381E08A8399E09B832C83E1EAEA
:1016D000ED838E8355E85F83388729879A8759E1A0
:1016E0005B878C8759E25D874E8755E15F87188A53
:1016F00055E2598B8A8B75E77B8B8C8B65E96D8BFB
:101700004E8B45E54F8B188E45E6498F1A8E51E872
:101710005B8F42E04C8F7D8F8E8F6F8FF4E0F8A34C
:1017200059A33AA32BA38CA39DA38EA326E12FA399
:1017300088A780E889A786E28AA78FEF8BA78FE723
:101740008CA77DA780E18EA76FA748ABE9AB1AAA4B
:101750009BAB80E38CAB9DAB81E38EAB5FAB48AFC3
:1017600080EC89AF8AAF8AE390E00E94310F7C0160
:101770008AE3FE013196D70101900D928A95E1F737
:1017800087E090E00E94310F8C01DC0111961C92E1
:101790001E921396FC92EE9212978AE390E01596B1
:1017A0009C938E93149716961C920E947905FC01C7
:1017B000A385B485109709F073C0148703878585C6
:1017C0009685D80114962D913C91820F931F968790
:1017D00085879091FF01892F8695869586959770CC
:1017E00009F066C08093000210910002812F90E002
:1017F0000E94310F9093FD018093FC0181E0909154
:101800000102911101C080E01C5F810F80933102C1
:101810001092E3011092E2011092E5011092E401AE
:101820001092E7011092E6011092E9011092E8018E
:101830001092EB011092EA011092ED011092EC016E
:101840001092EF011092EE011092F1011092F0014E
:101850001092F3011092F2011092F5011092F4012E
:101860001092F7011092F6018FEF9FEF9093F9011C
:101870008093F8019093FB018093FA0190E080E05F
:101880002091000228171906A9F0A4F0E091FC01AC
:10189000F091FD01E80FF91F10820196F1CFDC01F4
:1018A0008D919C9111970097D1F70D931C9387CF41
:1018B0008F5F98CFCA56DF4F0FB6F894DEBF0FBECA
:1018C000CDBFDF91CF911F910F91FF90EF900895C1
:1018D000789484B5826084BD84B5816084BD85B50B
:1018E000826085BD85B5816085BD80916E00816017
:1018F00080936E00109281008091810082608093BD
:1019000081008091810081608093810080918000BE
:10191000816080938000809191008260809391002B
:10192000809191008160809391008091900081600E
:10193000809390008091C10084608093C100809169
:10194000C10082608093C1008091C100816080935A
:10195000C1008091C30081608093C3008091C0006A
:1019600082608093C0008091C20081608093C20039
:1019700080917A00846080937A0080917A008260FE
:1019800080937A0080917A00816080937A008091C0
:101990007A00806880937A001092910110926D0114
:1019A00010926C018091D70081608093D70080EA0B
:1019B0008093D80089B5806189BD89B5826089BD71
:1019C00009B400FEFDCF61E070E080E090E00E948D
:1019D000D0038091D8008F7C80618093D800809163
:1019E000E000807F8093E0008091E1008E7E809314
:1019F000E1008DE08093E200559A209A82E10E94F6
:101A00005C0183E10E945C0184E10E945C0185E14C
:101A10000E945C0183E00E945C0182E00E945C0104
:101A200080E00E945C0181E00E945C0184E00E94F1
:101A30005C018FE00E945C0180E10E945C018EE00D
:101A40000E945C0188E00E945C0189E00E945C01C8
:101A50008AE00E945C0186E00E945C0181E0809344
:101A6000FE010E94EB058FEF9FEF9093050280939C
:101A7000040221E030E030930702209306029093A5
:101A800009028093080230930B0220930A0290937C
:101A90009F0180939E0190E0A92E90E0B92E82E1F3
:101AA0000E948903181619060CF077C082E10E9483
:101AB0008903C2970CF478C083E10E948903181649
:101AC00019060CF076C083E10E948903C2970CF4DA
:101AD00077C083E10E94890383E10E948903C39751
:101AE00064F082E10E94890382E10E948903C39726
:101AF00024F090E080E00E94D40784E10E948903F2
:101B0000181619060CF061C084E10E948903C2977F
:101B10000CF462C085E10E948903181619060CF0C6
:101B200060C085E10E948903C2970CF461C084E122
:101B30000E94890384E10E948903C39764F085E1D0
:101B40000E94890385E10E948903C39724F090E0F5
:101B500080E00E94CA078EE6C82E81E0D82EF12CC4
:101B6000E12C87010150110982E10F30110508F0C5
:101B700045C0F801E254F24F0C94170FFD0D2E0EE4
:101B8000300E320E340E360E380E3A0E3C0E3E0E2D
:101B9000400E420E440E460E480E82E10E9489031A
:101BA0008F3C9F4F0CF488CF8FEF9FEF0E94D4079C
:101BB00083CF83E10E9489038F3C9F4F0CF489CF30
:101BC00081E090E00E94D40784CF84E10E948903E1
:101BD0008F3C9F4F0CF49ECF8FEF9FEF0E94CA0760
:101BE00099CF85E10E9489038F3C9F4F0CF49FCFD2
:101BF00081E090E00E94CA079ACF83E10E941A0315
:101C000021E030E0892B11F030E020E030938F01AB
:101C100020938E01F601819191916F01C0918E0107
:101C2000D0918F018C179D0709F441C00F30110529
:101C300008F030C0F801E15EF14F0C94170F6C0E04
:101C4000760E7C0E820E870E8A0E8D0E900E930EEF
:101C5000960E990E9C0E9F0EA20EA50E84E1CECF7D
:101C600085E1CCCF83E0CACF82E0C8CF80E0C6CF89
:101C700081E0C4CF84E0C2CF8FE0C0CF80E1BECF8F
:101C80008EE0BCCF88E0BACF89E0B8CF8AE0B6CF8B
:101C900086E0B4CF8FEF9FEFC130D10511F090E017
:101CA00080E00E94D407F6013297D183C083FFEF12
:101CB000EF1AFF0A20E1E216F10409F052CF65E0C5
:101CC00070E080E090E00E94D003A114B10409F418
:101CD000E6CE0E940000E3CE81E090E0C130D10565
:101CE00011F090E080E00E94CA07DDCF81E090E033
:101CF000C130D105A1F6D5CFC130D10591F78FEF15
:101D00009FEFF1CF6C2F80E00E948307CCCF6C2F28
:101D100081E0FACF6C2F82E0F7CF6C2F83E0F4CF15
:101D20006C2F84E0F1CF6C2F85E0EECF6C2F86E036
:101D3000EBCF6C2F87E0E8CF6C2F88E0E5CF6C2FDE
:101D400089E0E2CF6C2F8AE0DFCF6C2F8BE0DCCF15
:101D5000052E97FB1EF400940E94BF0E57FD07D07E
:101D60000E94D20E07FC03D04EF40C94BF0E509587
:101D70004095309521953F4F4F4F5F4F0895909577
:101D80008095709561957F4F8F4F9F4F08950E946A
:101D9000F40EA59F900DB49F900DA49F800D911DF2
:101DA00011240895A1E21A2EAA1BBB1BFD010DC030
:101DB000AA1FBB1FEE1FFF1FA217B307E407F507FB
:101DC00020F0A21BB30BE40BF50B661F771F881FD7
:101DD000991F1A9469F760957095809590959B016D
:101DE000AC01BD01CF010895A29FB001B39FC00116
:101DF000A39F700D811D1124911DB29F700D811D37
:101E00001124911D089597FB072E16F4009407D016
:101E100077FD09D00E941D0F07FC05D03EF4909578
:101E200081959F4F0895709561957F4F0895EE0FAE
:101E3000FF1F0590F491E02D0994AA1BBB1B51E1F3
:101E400007C0AA1FBB1FA617B70710F0A61BB70B2A
:101E5000881F991F5A95A9F780959095BC01CD01CF
:101E600008950F931F93CF93DF938230910510F461
:101E700082E090E0E0913402F091350230E020E021
:101E8000B0E0A0E0309799F42115310509F44AC07B
:101E9000281B390B24303105D8F58A819B816115C7
:101EA000710589F1FB0193838283FE0111C040819A
:101EB00051810281138148175907E0F048175907EB
:101EC00099F4109761F012960C93129713961C9345
:101ED0003296CF01DF91CF911F910F91089500931A
:101EE000340210933502F4CF2115310551F0421719
:101EF000530738F0A901DB019A01BD01DF01F801A8
:101F0000C1CFEF01F9CF9093350280933402CDCF4A
:101F1000FE01E20FF31F819391932250310939831F
:101F20002883D7CF2091320230913302232B41F402
:101F30002091150130911601309333022093320223
:101F400020911301309114012115310541F42DB771
:101F50003EB74091170150911801241B350BE091B9
:101F60003202F0913302E217F307A0F42E1B3F0B6D
:101F70002817390778F0AC014E5F5F4F24173507FB
:101F800048F04E0F5F1F509333024093320281930B
:101F900091939FCFF0E0E0E09CCFCF93DF93009749
:101FA000E9F0FC01329713821282A0913402B091C1
:101FB0003502ED0130E020E01097A1F4208131815D
:101FC000820F931F20913202309133022817390774
:101FD00009F061C0F0933302E0933202DF91CF91B8
:101FE0000895EA01CE17DF07E8F54A815B819E017B
:101FF00041155105B1F7E901FB83EA8349915991F4
:10200000C40FD51FEC17FD0761F480819181029602
:10201000840F951FE90199838883828193819B8333
:102020008A83F0E0E0E012968D919C9113970097DF
:10203000B9F52D913C911197CD010296820F931F16
:1020400020913202309133022817390739F6309740
:1020500051F51092350210923402B0933302A093DE
:102060003202BCCFD383C28340815181840F951F3C
:10207000C817D90761F44E5F5F4F88819981480F77
:10208000591F518340838A819B81938382832115C9
:10209000310509F0B0CFF0933502E09334029ECFC2
:1020A000FD01DC01C0CF13821282D7CFFB01DC011E
:1020B00002C001900D9241505040D8F70895F89415
:0220C000FFCF50
:1020C20000C18081000000FFFFFFFF00E10000006F
:1020D20000000000003602800000000000B2042E62
:1020E20005F004D5040000000098029C04B902AE79
:0820F200020003BE02DC020043
:00000001FF
